{
  "_format": "hh-sol-artifact-1",
  "contractName": "Charity",
  "sourceName": "contracts/charity.sol",
  "abi": [
    {
      "inputs": [],
      "stateMutability": "nonpayable",
      "type": "constructor"
    },
    {
      "anonymous": false,
      "inputs": [
        {
          "indexed": true,
          "internalType": "address",
          "name": "campaignOwner",
          "type": "address"
        },
        {
          "indexed": false,
          "internalType": "uint256",
          "name": "campaignId",
          "type": "uint256"
        },
        {
          "indexed": false,
          "internalType": "string",
          "name": "campaignName",
          "type": "string"
        }
      ],
      "name": "CampaignCreated",
      "type": "event"
    },
    {
      "anonymous": false,
      "inputs": [
        {
          "indexed": true,
          "internalType": "address",
          "name": "charityAddress",
          "type": "address"
        },
        {
          "indexed": false,
          "internalType": "string",
          "name": "charityName",
          "type": "string"
        },
        {
          "indexed": false,
          "internalType": "uint256",
          "name": "charityId",
          "type": "uint256"
        }
      ],
      "name": "CharityOrgRegistered",
      "type": "event"
    },
    {
      "anonymous": false,
      "inputs": [
        {
          "indexed": true,
          "internalType": "address",
          "name": "donor",
          "type": "address"
        },
        {
          "indexed": false,
          "internalType": "uint256",
          "name": "campaignId",
          "type": "uint256"
        },
        {
          "indexed": false,
          "internalType": "uint256",
          "name": "amount",
          "type": "uint256"
        }
      ],
      "name": "DonationMade",
      "type": "event"
    },
    {
      "anonymous": false,
      "inputs": [
        {
          "indexed": true,
          "internalType": "address",
          "name": "donorAddress",
          "type": "address"
        },
        {
          "indexed": false,
          "internalType": "string",
          "name": "donorName",
          "type": "string"
        },
        {
          "indexed": false,
          "internalType": "uint256",
          "name": "donorId",
          "type": "uint256"
        }
      ],
      "name": "DonorRegistered",
      "type": "event"
    },
    {
      "anonymous": false,
      "inputs": [
        {
          "indexed": false,
          "internalType": "uint256",
          "name": "campaignId",
          "type": "uint256"
        }
      ],
      "name": "FundReleased",
      "type": "event"
    },
    {
      "anonymous": false,
      "inputs": [
        {
          "indexed": true,
          "internalType": "address",
          "name": "from",
          "type": "address"
        },
        {
          "indexed": false,
          "internalType": "uint256",
          "name": "campaignId",
          "type": "uint256"
        },
        {
          "indexed": false,
          "internalType": "uint256",
          "name": "amount",
          "type": "uint256"
        }
      ],
      "name": "TransactionLogged",
      "type": "event"
    },
    {
      "inputs": [
        {
          "internalType": "address",
          "name": "_functionCaller",
          "type": "address"
        }
      ],
      "name": "checkIsCharityOrg",
      "outputs": [
        {
          "internalType": "bool",
          "name": "",
          "type": "bool"
        }
      ],
      "stateMutability": "view",
      "type": "function"
    },
    {
      "inputs": [
        {
          "internalType": "address",
          "name": "_functionCaller",
          "type": "address"
        }
      ],
      "name": "checkIsDonor",
      "outputs": [
        {
          "internalType": "bool",
          "name": "",
          "type": "bool"
        }
      ],
      "stateMutability": "view",
      "type": "function"
    },
    {
      "inputs": [
        {
          "internalType": "uint256",
          "name": "_campaignId",
          "type": "uint256"
        }
      ],
      "name": "checkIsValidCampaign",
      "outputs": [
        {
          "internalType": "bool",
          "name": "",
          "type": "bool"
        }
      ],
      "stateMutability": "view",
      "type": "function"
    },
    {
      "inputs": [
        {
          "internalType": "string",
          "name": "_campaignName",
          "type": "string"
        },
        {
          "internalType": "string",
          "name": "_campaignDesc",
          "type": "string"
        },
        {
          "internalType": "string",
          "name": "_dueDate",
          "type": "string"
        },
        {
          "internalType": "string",
          "name": "_acceptedPaymentMethod",
          "type": "string"
        },
        {
          "internalType": "uint256",
          "name": "_adminFee",
          "type": "uint256"
        },
        {
          "internalType": "address payable[]",
          "name": "_beneficiaries",
          "type": "address[]"
        }
      ],
      "name": "createCampaign",
      "outputs": [],
      "stateMutability": "nonpayable",
      "type": "function"
    },
    {
      "inputs": [
        {
          "internalType": "uint256",
          "name": "_campaignId",
          "type": "uint256"
        }
      ],
      "name": "donate",
      "outputs": [],
      "stateMutability": "payable",
      "type": "function"
    },
    {
      "inputs": [],
      "name": "getAllCampaign",
      "outputs": [
        {
          "components": [
            {
              "internalType": "address",
              "name": "campaignOwner",
              "type": "address"
            },
            {
              "internalType": "uint256",
              "name": "campaignId",
              "type": "uint256"
            },
            {
              "internalType": "string",
              "name": "campaignName",
              "type": "string"
            },
            {
              "internalType": "string",
              "name": "campaignDesc",
              "type": "string"
            },
            {
              "internalType": "string",
              "name": "dueDate",
              "type": "string"
            },
            {
              "internalType": "string",
              "name": "acceptedPaymentMethod",
              "type": "string"
            },
            {
              "internalType": "uint256",
              "name": "adminFee",
              "type": "uint256"
            },
            {
              "internalType": "uint256",
              "name": "raisedAmount",
              "type": "uint256"
            },
            {
              "internalType": "enum Charity.CampaignState",
              "name": "campaignState",
              "type": "uint8"
            },
            {
              "internalType": "address payable[]",
              "name": "beneficiaries",
              "type": "address[]"
            }
          ],
          "internalType": "struct Charity.Campaign[]",
          "name": "",
          "type": "tuple[]"
        }
      ],
      "stateMutability": "view",
      "type": "function"
    },
    {
      "inputs": [],
      "name": "getAllCharityOrg",
      "outputs": [
        {
          "components": [
            {
              "internalType": "address",
              "name": "charityAddress",
              "type": "address"
            },
            {
              "internalType": "string",
              "name": "charityName",
              "type": "string"
            },
            {
              "internalType": "string",
              "name": "charityDesc",
              "type": "string"
            },
            {
              "internalType": "uint256",
              "name": "charityId",
              "type": "uint256"
            },
            {
              "internalType": "enum Charity.ReputationLevel",
              "name": "reputationLevel",
              "type": "uint8"
            }
          ],
          "internalType": "struct Charity.CharityOrg[]",
          "name": "",
          "type": "tuple[]"
        }
      ],
      "stateMutability": "view",
      "type": "function"
    },
    {
      "inputs": [],
      "name": "getAllTransactionHistory",
      "outputs": [
        {
          "components": [
            {
              "internalType": "address",
              "name": "from",
              "type": "address"
            },
            {
              "internalType": "uint256",
              "name": "campaignId",
              "type": "uint256"
            },
            {
              "internalType": "string",
              "name": "currencyType",
              "type": "string"
            },
            {
              "internalType": "uint256",
              "name": "amountSent",
              "type": "uint256"
            },
            {
              "internalType": "uint256",
              "name": "timeStamp",
              "type": "uint256"
            }
          ],
          "internalType": "struct Charity.TransactionInfo[]",
          "name": "",
          "type": "tuple[]"
        }
      ],
      "stateMutability": "view",
      "type": "function"
    },
    {
      "inputs": [
        {
          "internalType": "uint256",
          "name": "_campaignId",
          "type": "uint256"
        }
      ],
      "name": "getCampaign",
      "outputs": [
        {
          "components": [
            {
              "internalType": "address",
              "name": "campaignOwner",
              "type": "address"
            },
            {
              "internalType": "uint256",
              "name": "campaignId",
              "type": "uint256"
            },
            {
              "internalType": "string",
              "name": "campaignName",
              "type": "string"
            },
            {
              "internalType": "string",
              "name": "campaignDesc",
              "type": "string"
            },
            {
              "internalType": "string",
              "name": "dueDate",
              "type": "string"
            },
            {
              "internalType": "string",
              "name": "acceptedPaymentMethod",
              "type": "string"
            },
            {
              "internalType": "uint256",
              "name": "adminFee",
              "type": "uint256"
            },
            {
              "internalType": "uint256",
              "name": "raisedAmount",
              "type": "uint256"
            },
            {
              "internalType": "enum Charity.CampaignState",
              "name": "campaignState",
              "type": "uint8"
            },
            {
              "internalType": "address payable[]",
              "name": "beneficiaries",
              "type": "address[]"
            }
          ],
          "internalType": "struct Charity.Campaign",
          "name": "retrievedCampaign",
          "type": "tuple"
        }
      ],
      "stateMutability": "view",
      "type": "function"
    },
    {
      "inputs": [
        {
          "internalType": "address",
          "name": "_campaignOwner",
          "type": "address"
        }
      ],
      "name": "getCampaignByOwner",
      "outputs": [
        {
          "components": [
            {
              "internalType": "address",
              "name": "campaignOwner",
              "type": "address"
            },
            {
              "internalType": "uint256",
              "name": "campaignId",
              "type": "uint256"
            },
            {
              "internalType": "string",
              "name": "campaignName",
              "type": "string"
            },
            {
              "internalType": "string",
              "name": "campaignDesc",
              "type": "string"
            },
            {
              "internalType": "string",
              "name": "dueDate",
              "type": "string"
            },
            {
              "internalType": "string",
              "name": "acceptedPaymentMethod",
              "type": "string"
            },
            {
              "internalType": "uint256",
              "name": "adminFee",
              "type": "uint256"
            },
            {
              "internalType": "uint256",
              "name": "raisedAmount",
              "type": "uint256"
            },
            {
              "internalType": "enum Charity.CampaignState",
              "name": "campaignState",
              "type": "uint8"
            },
            {
              "internalType": "address payable[]",
              "name": "beneficiaries",
              "type": "address[]"
            }
          ],
          "internalType": "struct Charity.Campaign[]",
          "name": "",
          "type": "tuple[]"
        }
      ],
      "stateMutability": "view",
      "type": "function"
    },
    {
      "inputs": [
        {
          "internalType": "uint256",
          "name": "_charityId",
          "type": "uint256"
        }
      ],
      "name": "getCharityOrg",
      "outputs": [
        {
          "components": [
            {
              "internalType": "address",
              "name": "charityAddress",
              "type": "address"
            },
            {
              "internalType": "string",
              "name": "charityName",
              "type": "string"
            },
            {
              "internalType": "string",
              "name": "charityDesc",
              "type": "string"
            },
            {
              "internalType": "uint256",
              "name": "charityId",
              "type": "uint256"
            },
            {
              "internalType": "enum Charity.ReputationLevel",
              "name": "reputationLevel",
              "type": "uint8"
            }
          ],
          "internalType": "struct Charity.CharityOrg",
          "name": "targetCharityOrg",
          "type": "tuple"
        }
      ],
      "stateMutability": "view",
      "type": "function"
    },
    {
      "inputs": [
        {
          "internalType": "uint256",
          "name": "_campaignId",
          "type": "uint256"
        }
      ],
      "name": "getTransactionHistory",
      "outputs": [
        {
          "components": [
            {
              "internalType": "address",
              "name": "from",
              "type": "address"
            },
            {
              "internalType": "uint256",
              "name": "campaignId",
              "type": "uint256"
            },
            {
              "internalType": "string",
              "name": "currencyType",
              "type": "string"
            },
            {
              "internalType": "uint256",
              "name": "amountSent",
              "type": "uint256"
            },
            {
              "internalType": "uint256",
              "name": "timeStamp",
              "type": "uint256"
            }
          ],
          "internalType": "struct Charity.TransactionInfo[]",
          "name": "",
          "type": "tuple[]"
        }
      ],
      "stateMutability": "view",
      "type": "function"
    },
    {
      "inputs": [
        {
          "internalType": "string",
          "name": "_charityName",
          "type": "string"
        },
        {
          "internalType": "string",
          "name": "_charityDesc",
          "type": "string"
        }
      ],
      "name": "registerAsCharityOrg",
      "outputs": [
        {
          "components": [
            {
              "internalType": "address",
              "name": "charityAddress",
              "type": "address"
            },
            {
              "internalType": "string",
              "name": "charityName",
              "type": "string"
            },
            {
              "internalType": "string",
              "name": "charityDesc",
              "type": "string"
            },
            {
              "internalType": "uint256",
              "name": "charityId",
              "type": "uint256"
            },
            {
              "internalType": "enum Charity.ReputationLevel",
              "name": "reputationLevel",
              "type": "uint8"
            }
          ],
          "internalType": "struct Charity.CharityOrg[]",
          "name": "",
          "type": "tuple[]"
        }
      ],
      "stateMutability": "nonpayable",
      "type": "function"
    },
    {
      "inputs": [
        {
          "internalType": "string",
          "name": "_donorName",
          "type": "string"
        }
      ],
      "name": "registerAsDonor",
      "outputs": [
        {
          "components": [
            {
              "internalType": "address",
              "name": "donorAddress",
              "type": "address"
            },
            {
              "internalType": "string",
              "name": "donorName",
              "type": "string"
            },
            {
              "internalType": "uint256",
              "name": "donorId",
              "type": "uint256"
            }
          ],
          "internalType": "struct Charity.Donor[]",
          "name": "",
          "type": "tuple[]"
        }
      ],
      "stateMutability": "nonpayable",
      "type": "function"
    },
    {
      "inputs": [
        {
          "internalType": "uint256",
          "name": "_campaignId",
          "type": "uint256"
        }
      ],
      "name": "releaseFund",
      "outputs": [],
      "stateMutability": "nonpayable",
      "type": "function"
    }
  ],
  "bytecode": "0x60806040523480156200001157600080fd5b5060006040518060a00160405280600073ffffffffffffffffffffffffffffffffffffffff1681526020016040518060400160405280600881526020017f52656463726f737300000000000000000000000000000000000000000000000081525081526020016040518060c00160405280608e8152602001620048f0608e9139815260200160018152602001600480811115620000b357620000b2620005b1565b5b815250908060018154018082558091505060019003906000526020600020906005020160009091909190915060008201518160000160006101000a81548173ffffffffffffffffffffffffffffffffffffffff021916908373ffffffffffffffffffffffffffffffffffffffff160217905550602082015181600101908051906020019062000144929190620004cb565b50604082015181600201908051906020019062000163929190620004cb565b506060820151816003015560808201518160040160006101000a81548160ff021916908360048111156200019c576200019b620005b1565b5b0217905550505060006040518060a00160405280600073ffffffffffffffffffffffffffffffffffffffff1681526020016040518060400160405280600681526020017f554e49434546000000000000000000000000000000000000000000000000000081525081526020016040518060c00160405280609381526020016200485d60939139815260200160028152602001600480811115620002445762000243620005b1565b5b815250908060018154018082558091505060019003906000526020600020906005020160009091909190915060008201518160000160006101000a81548173ffffffffffffffffffffffffffffffffffffffff021916908373ffffffffffffffffffffffffffffffffffffffff1602179055506020820151816001019080519060200190620002d5929190620004cb565b506040820151816002019080519060200190620002f4929190620004cb565b506060820151816003015560808201518160040160006101000a81548160ff021916908360048111156200032d576200032c620005b1565b5b0217905550505060006040518060a00160405280600073ffffffffffffffffffffffffffffffffffffffff1681526020016040518060400160405280600381526020017f575746000000000000000000000000000000000000000000000000000000000081525081526020016040518060c0016040528060848152602001620047d960849139815260200160038152602001600480811115620003d557620003d4620005b1565b5b815250908060018154018082558091505060019003906000526020600020906005020160009091909190915060008201518160000160006101000a81548173ffffffffffffffffffffffffffffffffffffffff021916908373ffffffffffffffffffffffffffffffffffffffff160217905550602082015181600101908051906020019062000466929190620004cb565b50604082015181600201908051906020019062000485929190620004cb565b506060820151816003015560808201518160040160006101000a81548160ff02191690836004811115620004be57620004bd620005b1565b5b021790555050506200060f565b828054620004d9906200057b565b90600052602060002090601f016020900481019282620004fd576000855562000549565b82601f106200051857805160ff191683800117855562000549565b8280016001018555821562000549579182015b82811115620005485782518255916020019190600101906200052b565b5b5090506200055891906200055c565b5090565b5b80821115620005775760008160009055506001016200055d565b5090565b600060028204905060018216806200059457607f821691505b60208210811415620005ab57620005aa620005e0565b5b50919050565b7f4e487b7100000000000000000000000000000000000000000000000000000000600052602160045260246000fd5b7f4e487b7100000000000000000000000000000000000000000000000000000000600052602260045260246000fd5b6141ba806200061f6000396000f3fe6080604052600436106100e85760003560e01c806395426f391161008a578063f14faf6f11610059578063f14faf6f14610342578063f1841a7c1461035e578063f3e2ec1614610387578063f692f5e7146103c4576100e8565b806395426f391461026257806397d224771461029f578063cd967f3a146102c8578063ec9c6a0e14610305576100e8565b80633b574189116100c65780633b574189146101925780634ca079f2146101cf5780635598f8cc146101fa578063784394bc14610237576100e8565b80631a71eae1146100ed5780632016775e1461012a57806335951cba14610155575b600080fd5b3480156100f957600080fd5b50610114600480360381019061010f9190612e65565b610401565b604051610121919061385d565b60405180910390f35b34801561013657600080fd5b5061013f61067a565b60405161014c919061383b565b60405180910390f35b34801561016157600080fd5b5061017c60048036038101906101779190612e38565b610898565b60405161018991906138a1565b60405180910390f35b34801561019e57600080fd5b506101b960048036038101906101b49190612eae565b61094e565b6040516101c6919061383b565b60405180910390f35b3480156101db57600080fd5b506101e4610d01565b6040516101f19190613819565b60405180910390f35b34801561020657600080fd5b50610221600480360381019061021c919061303f565b6110e6565b60405161022e919061396c565b60405180910390f35b34801561024357600080fd5b5061024c61154a565b604051610259919061387f565b60405180910390f35b34801561026e57600080fd5b506102896004803603810190610284919061303f565b6116af565b60405161029691906138a1565b60405180910390f35b3480156102ab57600080fd5b506102c660048036038101906102c1919061303f565b611719565b005b3480156102d457600080fd5b506102ef60048036038101906102ea919061303f565b611a6d565b6040516102fc919061398e565b60405180910390f35b34801561031157600080fd5b5061032c60048036038101906103279190612e38565b611cc0565b60405161033991906138a1565b60405180910390f35b61035c6004803603810190610357919061303f565b611d76565b005b34801561036a57600080fd5b5061038560048036038101906103809190612f26565b61207f565b005b34801561039357600080fd5b506103ae60048036038101906103a99190612e38565b6122ee565b6040516103bb9190613819565b60405180910390f35b3480156103d057600080fd5b506103eb60048036038101906103e6919061303f565b61287f565b6040516103f8919061387f565b60405180910390f35b6060600160405180606001604052803373ffffffffffffffffffffffffffffffffffffffff168152602001848152602001600180549050815250908060018154018082558091505060019003906000526020600020906003020160009091909190915060008201518160000160006101000a81548173ffffffffffffffffffffffffffffffffffffffff021916908373ffffffffffffffffffffffffffffffffffffffff16021790555060208201518160010190805190602001906104c7929190612aa7565b506040820151816002015550503373ffffffffffffffffffffffffffffffffffffffff167fc372ea5dd478bd45315a723ad9e1a777482118e2bd44a40d6719a5520ab53300836001805490506040516105219291906138bc565b60405180910390a26001805480602002602001604051908101604052809291908181526020016000905b8282101561066f57838290600052602060002090600302016040518060600160405290816000820160009054906101000a900473ffffffffffffffffffffffffffffffffffffffff1673ffffffffffffffffffffffffffffffffffffffff1673ffffffffffffffffffffffffffffffffffffffff1681526020016001820180546105d490613deb565b80601f016020809104026020016040519081016040528092919081815260200182805461060090613deb565b801561064d5780601f106106225761010080835404028352916020019161064d565b820191906000526020600020905b81548152906001019060200180831161063057829003601f168201915b505050505081526020016002820154815250508152602001906001019061054b565b505050509050919050565b60606000805480602002602001604051908101604052809291908181526020016000905b8282101561088f57838290600052602060002090600502016040518060a00160405290816000820160009054906101000a900473ffffffffffffffffffffffffffffffffffffffff1673ffffffffffffffffffffffffffffffffffffffff1673ffffffffffffffffffffffffffffffffffffffff16815260200160018201805461072790613deb565b80601f016020809104026020016040519081016040528092919081815260200182805461075390613deb565b80156107a05780601f10610775576101008083540402835291602001916107a0565b820191906000526020600020905b81548152906001019060200180831161078357829003601f168201915b505050505081526020016002820180546107b990613deb565b80601f01602080910402602001604051908101604052809291908181526020018280546107e590613deb565b80156108325780601f1061080757610100808354040283529160200191610832565b820191906000526020600020905b81548152906001019060200180831161081557829003601f168201915b50505050508152602001600382015481526020016004820160009054906101000a900460ff16600481111561086a57610869613ef5565b5b600481111561087c5761087b613ef5565b5b815250508152602001906001019061069e565b50505050905090565b600080600090505b600180549050811015610943578273ffffffffffffffffffffffffffffffffffffffff16600182815481106108d8576108d7613f53565b5b906000526020600020906003020160000160009054906101000a900473ffffffffffffffffffffffffffffffffffffffff1673ffffffffffffffffffffffffffffffffffffffff161415610930576001915050610949565b808061093b90613e4e565b9150506108a0565b50600090505b919050565b606060006040518060a001604052803373ffffffffffffffffffffffffffffffffffffffff1681526020018581526020018481526020016000805490508152602001600060048111156109a4576109a3613ef5565b5b815250908060018154018082558091505060019003906000526020600020906005020160009091909190915060008201518160000160006101000a81548173ffffffffffffffffffffffffffffffffffffffff021916908373ffffffffffffffffffffffffffffffffffffffff1602179055506020820151816001019080519060200190610a33929190612aa7565b506040820151816002019080519060200190610a50929190612aa7565b506060820151816003015560808201518160040160006101000a81548160ff02191690836004811115610a8657610a85613ef5565b5b021790555050503373ffffffffffffffffffffffffffffffffffffffff167fe072c789f40fe9412ad7405848af295d4ef05e49f8d352ac96fe0f044074177d84600080549050604051610ada9291906138bc565b60405180910390a26000805480602002602001604051908101604052809291908181526020016000905b82821015610cf557838290600052602060002090600502016040518060a00160405290816000820160009054906101000a900473ffffffffffffffffffffffffffffffffffffffff1673ffffffffffffffffffffffffffffffffffffffff1673ffffffffffffffffffffffffffffffffffffffff168152602001600182018054610b8d90613deb565b80601f0160208091040260200160405190810160405280929190818152602001828054610bb990613deb565b8015610c065780601f10610bdb57610100808354040283529160200191610c06565b820191906000526020600020905b815481529060010190602001808311610be957829003601f168201915b50505050508152602001600282018054610c1f90613deb565b80601f0160208091040260200160405190810160405280929190818152602001828054610c4b90613deb565b8015610c985780601f10610c6d57610100808354040283529160200191610c98565b820191906000526020600020905b815481529060010190602001808311610c7b57829003601f168201915b50505050508152602001600382015481526020016004820160009054906101000a900460ff166004811115610cd057610ccf613ef5565b5b6004811115610ce257610ce1613ef5565b5b8152505081526020019060010190610b04565b50505050905092915050565b60606002805480602002602001604051908101604052809291908181526020016000905b828210156110dd57838290600052602060002090600a0201604051806101400160405290816000820160009054906101000a900473ffffffffffffffffffffffffffffffffffffffff1673ffffffffffffffffffffffffffffffffffffffff1673ffffffffffffffffffffffffffffffffffffffff16815260200160018201548152602001600282018054610db990613deb565b80601f0160208091040260200160405190810160405280929190818152602001828054610de590613deb565b8015610e325780601f10610e0757610100808354040283529160200191610e32565b820191906000526020600020905b815481529060010190602001808311610e1557829003601f168201915b50505050508152602001600382018054610e4b90613deb565b80601f0160208091040260200160405190810160405280929190818152602001828054610e7790613deb565b8015610ec45780601f10610e9957610100808354040283529160200191610ec4565b820191906000526020600020905b815481529060010190602001808311610ea757829003601f168201915b50505050508152602001600482018054610edd90613deb565b80601f0160208091040260200160405190810160405280929190818152602001828054610f0990613deb565b8015610f565780601f10610f2b57610100808354040283529160200191610f56565b820191906000526020600020905b815481529060010190602001808311610f3957829003601f168201915b50505050508152602001600582018054610f6f90613deb565b80601f0160208091040260200160405190810160405280929190818152602001828054610f9b90613deb565b8015610fe85780601f10610fbd57610100808354040283529160200191610fe8565b820191906000526020600020905b815481529060010190602001808311610fcb57829003601f168201915b5050505050815260200160068201548152602001600782015481526020016008820160009054906101000a900460ff16600281111561102a57611029613ef5565b5b600281111561103c5761103b613ef5565b5b8152602001600982018054806020026020016040519081016040528092919081815260200182805480156110c557602002820191906000526020600020905b8160009054906101000a900473ffffffffffffffffffffffffffffffffffffffff1673ffffffffffffffffffffffffffffffffffffffff168152602001906001019080831161107b575b50505050508152505081526020019060010190610d25565b50505050905090565b6110ee612b2d565b816110f8816116af565b611137576040517f08c379a000000000000000000000000000000000000000000000000000000000815260040161112e9061394c565b60405180910390fd5b60005b60028054905081101561154257836002828154811061115c5761115b613f53565b5b90600052602060002090600a020160010154141561152f576002818154811061118857611187613f53565b5b90600052602060002090600a0201604051806101400160405290816000820160009054906101000a900473ffffffffffffffffffffffffffffffffffffffff1673ffffffffffffffffffffffffffffffffffffffff1673ffffffffffffffffffffffffffffffffffffffff1681526020016001820154815260200160028201805461121290613deb565b80601f016020809104026020016040519081016040528092919081815260200182805461123e90613deb565b801561128b5780601f106112605761010080835404028352916020019161128b565b820191906000526020600020905b81548152906001019060200180831161126e57829003601f168201915b505050505081526020016003820180546112a490613deb565b80601f01602080910402602001604051908101604052809291908181526020018280546112d090613deb565b801561131d5780601f106112f25761010080835404028352916020019161131d565b820191906000526020600020905b81548152906001019060200180831161130057829003601f168201915b5050505050815260200160048201805461133690613deb565b80601f016020809104026020016040519081016040528092919081815260200182805461136290613deb565b80156113af5780601f10611384576101008083540402835291602001916113af565b820191906000526020600020905b81548152906001019060200180831161139257829003601f168201915b505050505081526020016005820180546113c890613deb565b80601f01602080910402602001604051908101604052809291908181526020018280546113f490613deb565b80156114415780601f1061141657610100808354040283529160200191611441565b820191906000526020600020905b81548152906001019060200180831161142457829003601f168201915b5050505050815260200160068201548152602001600782015481526020016008820160009054906101000a900460ff16600281111561148357611482613ef5565b5b600281111561149557611494613ef5565b5b81526020016009820180548060200260200160405190810160405280929190818152602001828054801561151e57602002820191906000526020600020905b8160009054906101000a900473ffffffffffffffffffffffffffffffffffffffff1673ffffffffffffffffffffffffffffffffffffffff16815260200190600101908083116114d4575b505050505081525050925050611544565b808061153a90613e4e565b91505061113a565b505b50919050565b60606003805480602002602001604051908101604052809291908181526020016000905b828210156116a657838290600052602060002090600502016040518060a00160405290816000820160009054906101000a900473ffffffffffffffffffffffffffffffffffffffff1673ffffffffffffffffffffffffffffffffffffffff1673ffffffffffffffffffffffffffffffffffffffff1681526020016001820154815260200160028201805461160190613deb565b80601f016020809104026020016040519081016040528092919081815260200182805461162d90613deb565b801561167a5780601f1061164f5761010080835404028352916020019161167a565b820191906000526020600020905b81548152906001019060200180831161165d57829003601f168201915b50505050508152602001600382015481526020016004820154815250508152602001906001019061156e565b50505050905090565b600080600090505b60028054905081101561170e5782600282815481106116d9576116d8613f53565b5b90600052602060002090600a02016001015414156116fb576001915050611714565b808061170690613e4e565b9150506116b7565b50600090505b919050565b80611723816116af565b611762576040517f08c379a00000000000000000000000000000000000000000000000000000000081526004016117599061394c565b60405180910390fd5b61176b33611cc0565b6117aa576040517f08c379a00000000000000000000000000000000000000000000000000000000081526004016117a19061392c565b60405180910390fd5b6000600283815481106117c0576117bf613f53565b5b90600052602060002090600a02019050600060028111156117e4576117e3613ef5565b5b8160080160009054906101000a900460ff16600281111561180857611807613ef5565b5b14611848576040517f08c379a000000000000000000000000000000000000000000000000000000000815260040161183f9061390c565b60405180910390fd5b6000816009018054806020026020016040519081016040528092919081815260200182805480156118ce57602002820191906000526020600020905b8160009054906101000a900473ffffffffffffffffffffffffffffffffffffffff1673ffffffffffffffffffffffffffffffffffffffff1681526020019060010190808311611884575b505050505090506000815183600701546118e89190613c46565b905060008251826118f99190613c77565b84600701546119089190613cd1565b905060005b835181101561198a5783818151811061192957611928613f53565b5b602002602001015173ffffffffffffffffffffffffffffffffffffffff166108fc849081150290604051600060405180830381858888f19350505050158015611976573d6000803e3d6000fd5b50808061198290613e4e565b91505061190d565b5060008111156119f757826000815181106119a8576119a7613f53565b5b602002602001015173ffffffffffffffffffffffffffffffffffffffff166108fc829081150290604051600060405180830381858888f193505050501580156119f5573d6000803e3d6000fd5b505b6000846007018190555060028460080160006101000a81548160ff02191690836002811115611a2957611a28613ef5565b5b02179055507f18d6408c6e61a2980aac40e70cad6e23ba909c69722e10421459ff7fcb16fa3786604051611a5d91906139b0565b60405180910390a1505050505050565b611a75612ba8565b60005b600080549050811015611cb9578260008281548110611a9a57611a99613f53565b5b9060005260206000209060050201600301541415611ca65760008181548110611ac657611ac5613f53565b5b90600052602060002090600502016040518060a00160405290816000820160009054906101000a900473ffffffffffffffffffffffffffffffffffffffff1673ffffffffffffffffffffffffffffffffffffffff1673ffffffffffffffffffffffffffffffffffffffff168152602001600182018054611b4590613deb565b80601f0160208091040260200160405190810160405280929190818152602001828054611b7190613deb565b8015611bbe5780601f10611b9357610100808354040283529160200191611bbe565b820191906000526020600020905b815481529060010190602001808311611ba157829003601f168201915b50505050508152602001600282018054611bd790613deb565b80601f0160208091040260200160405190810160405280929190818152602001828054611c0390613deb565b8015611c505780601f10611c2557610100808354040283529160200191611c50565b820191906000526020600020905b815481529060010190602001808311611c3357829003601f168201915b50505050508152602001600382015481526020016004820160009054906101000a900460ff166004811115611c8857611c87613ef5565b5b6004811115611c9a57611c99613ef5565b5b81525050915050611cbb565b8080611cb190613e4e565b915050611a78565b505b919050565b600080600090505b600080549050811015611d6b578273ffffffffffffffffffffffffffffffffffffffff1660008281548110611d0057611cff613f53565b5b906000526020600020906005020160000160009054906101000a900473ffffffffffffffffffffffffffffffffffffffff1673ffffffffffffffffffffffffffffffffffffffff161415611d58576001915050611d71565b8080611d6390613e4e565b915050611cc8565b50600090505b919050565b611d7f33610898565b611dbe576040517f08c379a0000000000000000000000000000000000000000000000000000000008152600401611db5906138ec565b60405180910390fd5b80611dc8816116af565b611e07576040517f08c379a0000000000000000000000000000000000000000000000000000000008152600401611dfe9061394c565b60405180910390fd5b60005b60028054905081101561207a578260028281548110611e2c57611e2b613f53565b5b90600052602060002090600a0201600101541415612067573460028281548110611e5957611e58613f53565b5b90600052602060002090600a02016007016000828254611e799190613bf0565b9250508190555060036040518060a001604052803373ffffffffffffffffffffffffffffffffffffffff16815260200160028481548110611ebd57611ebc613f53565b5b90600052602060002090600a02016001015481526020016040518060400160405280600381526020017f5553440000000000000000000000000000000000000000000000000000000000815250815260200134815260200142815250908060018154018082558091505060019003906000526020600020906005020160009091909190915060008201518160000160006101000a81548173ffffffffffffffffffffffffffffffffffffffff021916908373ffffffffffffffffffffffffffffffffffffffff160217905550602082015181600101556040820151816002019080519060200190611faf929190612aa7565b50606082015181600301556080820151816004015550503373ffffffffffffffffffffffffffffffffffffffff167fd97bcdf12fa1d5342fc942da5eadf35c7597f34f8da7274c2b0d2ad979842679843460405161200e9291906139fb565b60405180910390a23373ffffffffffffffffffffffffffffffffffffffff167f7772d368cd3cc6fa8dc9c0956d36dd1243d603abc8d99496f89d0e6950d80dde843460405161205e9291906139fb565b60405180910390a25b808061207290613e4e565b915050611e0a565b505050565b61208833611cc0565b6120c7576040517f08c379a00000000000000000000000000000000000000000000000000000000081526004016120be9061392c565b60405180910390fd5b60026040518061014001604052803373ffffffffffffffffffffffffffffffffffffffff1681526020016002805490508152602001888152602001878152602001868152602001858152602001848152602001600081526020016000600281111561213557612134613ef5565b5b81526020018381525090806001815401808255809150506001900390600052602060002090600a020160009091909190915060008201518160000160006101000a81548173ffffffffffffffffffffffffffffffffffffffff021916908373ffffffffffffffffffffffffffffffffffffffff1602179055506020820151816001015560408201518160020190805190602001906121d4929190612aa7565b5060608201518160030190805190602001906121f1929190612aa7565b50608082015181600401908051906020019061220e929190612aa7565b5060a082015181600501908051906020019061222b929190612aa7565b5060c0820151816006015560e082015181600701556101008201518160080160006101000a81548160ff0219169083600281111561226c5761226b613ef5565b5b021790555061012082015181600901908051906020019061228e929190612bff565b5050503373ffffffffffffffffffffffffffffffffffffffff167f0ebe94f361ce4504efd3def3f3b3536780036866339485a26cf48e95ff61b6a5600280549050886040516122de9291906139cb565b60405180910390a2505050505050565b6060806000805b60028054905081101561239d578473ffffffffffffffffffffffffffffffffffffffff166002828154811061232d5761232c613f53565b5b90600052602060002090600a020160000160009054906101000a900473ffffffffffffffffffffffffffffffffffffffff1673ffffffffffffffffffffffffffffffffffffffff16141561238a57818061238690613e4e565b9250505b808061239590613e4e565b9150506122f5565b508067ffffffffffffffff8111156123b8576123b7613f82565b5b6040519080825280602002602001820160405280156123f157816020015b6123de612b2d565b8152602001906001900390816123d65790505b5091506000905060005b600280549050811015612874578473ffffffffffffffffffffffffffffffffffffffff166002828154811061243357612432613f53565b5b90600052602060002090600a020160000160009054906101000a900473ffffffffffffffffffffffffffffffffffffffff1673ffffffffffffffffffffffffffffffffffffffff161415612861576002818154811061249557612494613f53565b5b90600052602060002090600a0201604051806101400160405290816000820160009054906101000a900473ffffffffffffffffffffffffffffffffffffffff1673ffffffffffffffffffffffffffffffffffffffff1673ffffffffffffffffffffffffffffffffffffffff1681526020016001820154815260200160028201805461251f90613deb565b80601f016020809104026020016040519081016040528092919081815260200182805461254b90613deb565b80156125985780601f1061256d57610100808354040283529160200191612598565b820191906000526020600020905b81548152906001019060200180831161257b57829003601f168201915b505050505081526020016003820180546125b190613deb565b80601f01602080910402602001604051908101604052809291908181526020018280546125dd90613deb565b801561262a5780601f106125ff5761010080835404028352916020019161262a565b820191906000526020600020905b81548152906001019060200180831161260d57829003601f168201915b5050505050815260200160048201805461264390613deb565b80601f016020809104026020016040519081016040528092919081815260200182805461266f90613deb565b80156126bc5780601f10612691576101008083540402835291602001916126bc565b820191906000526020600020905b81548152906001019060200180831161269f57829003601f168201915b505050505081526020016005820180546126d590613deb565b80601f016020809104026020016040519081016040528092919081815260200182805461270190613deb565b801561274e5780601f106127235761010080835404028352916020019161274e565b820191906000526020600020905b81548152906001019060200180831161273157829003601f168201915b5050505050815260200160068201548152602001600782015481526020016008820160009054906101000a900460ff1660028111156127905761278f613ef5565b5b60028111156127a2576127a1613ef5565b5b81526020016009820180548060200260200160405190810160405280929190818152602001828054801561282b57602002820191906000526020600020905b8160009054906101000a900473ffffffffffffffffffffffffffffffffffffffff1673ffffffffffffffffffffffffffffffffffffffff16815260200190600101908083116127e1575b50505050508152505083838151811061284757612846613f53565b5b6020026020010181905250818061285d90613e4e565b9250505b808061286c90613e4e565b9150506123fb565b508192505050919050565b6060600060016003805490506128959190613bf0565b67ffffffffffffffff8111156128ae576128ad613f82565b5b6040519080825280602002602001820160405280156128e757816020015b6128d4612c89565b8152602001906001900390816128cc5790505b5090506000805b600380549050811015612a9c5784600382815481106129105761290f613f53565b5b9060005260206000209060050201600101541415612a89576003818154811061293c5761293b613f53565b5b90600052602060002090600502016040518060a00160405290816000820160009054906101000a900473ffffffffffffffffffffffffffffffffffffffff1673ffffffffffffffffffffffffffffffffffffffff1673ffffffffffffffffffffffffffffffffffffffff168152602001600182015481526020016002820180546129c590613deb565b80601f01602080910402602001604051908101604052809291908181526020018280546129f190613deb565b8015612a3e5780601f10612a1357610100808354040283529160200191612a3e565b820191906000526020600020905b815481529060010190602001808311612a2157829003601f168201915b5050505050815260200160038201548152602001600482015481525050838381518110612a6e57612a6d613f53565b5b6020026020010181905250600182612a869190613bf0565b91505b8080612a9490613e4e565b9150506128ee565b508192505050919050565b828054612ab390613deb565b90600052602060002090601f016020900481019282612ad55760008555612b1c565b82601f10612aee57805160ff1916838001178555612b1c565b82800160010185558215612b1c579182015b82811115612b1b578251825591602001919060010190612b00565b5b509050612b299190612cce565b5090565b604051806101400160405280600073ffffffffffffffffffffffffffffffffffffffff1681526020016000815260200160608152602001606081526020016060815260200160608152602001600081526020016000815260200160006002811115612b9b57612b9a613ef5565b5b8152602001606081525090565b6040518060a00160405280600073ffffffffffffffffffffffffffffffffffffffff16815260200160608152602001606081526020016000815260200160006004811115612bf957612bf8613ef5565b5b81525090565b828054828255906000526020600020908101928215612c78579160200282015b82811115612c775782518260006101000a81548173ffffffffffffffffffffffffffffffffffffffff021916908373ffffffffffffffffffffffffffffffffffffffff16021790555091602001919060010190612c1f565b5b509050612c859190612cce565b5090565b6040518060a00160405280600073ffffffffffffffffffffffffffffffffffffffff168152602001600081526020016060815260200160008152602001600081525090565b5b80821115612ce7576000816000905550600101612ccf565b5090565b6000612cfe612cf984613a49565b613a24565b90508083825260208201905082856020860282011115612d2157612d20613fb6565b5b60005b85811015612d515781612d378882612db2565b845260208401935060208301925050600181019050612d24565b5050509392505050565b6000612d6e612d6984613a75565b613a24565b905082815260208101848484011115612d8a57612d89613fbb565b5b612d95848285613da9565b509392505050565b600081359050612dac8161413f565b92915050565b600081359050612dc181614156565b92915050565b600082601f830112612ddc57612ddb613fb1565b5b8135612dec848260208601612ceb565b91505092915050565b600082601f830112612e0a57612e09613fb1565b5b8135612e1a848260208601612d5b565b91505092915050565b600081359050612e328161416d565b92915050565b600060208284031215612e4e57612e4d613fc5565b5b6000612e5c84828501612d9d565b91505092915050565b600060208284031215612e7b57612e7a613fc5565b5b600082013567ffffffffffffffff811115612e9957612e98613fc0565b5b612ea584828501612df5565b91505092915050565b60008060408385031215612ec557612ec4613fc5565b5b600083013567ffffffffffffffff811115612ee357612ee2613fc0565b5b612eef85828601612df5565b925050602083013567ffffffffffffffff811115612f1057612f0f613fc0565b5b612f1c85828601612df5565b9150509250929050565b60008060008060008060c08789031215612f4357612f42613fc5565b5b600087013567ffffffffffffffff811115612f6157612f60613fc0565b5b612f6d89828a01612df5565b965050602087013567ffffffffffffffff811115612f8e57612f8d613fc0565b5b612f9a89828a01612df5565b955050604087013567ffffffffffffffff811115612fbb57612fba613fc0565b5b612fc789828a01612df5565b945050606087013567ffffffffffffffff811115612fe857612fe7613fc0565b5b612ff489828a01612df5565b935050608061300589828a01612e23565b92505060a087013567ffffffffffffffff81111561302657613025613fc0565b5b61303289828a01612dc7565b9150509295509295509295565b60006020828403121561305557613054613fc5565b5b600061306384828501612e23565b91505092915050565b600061307883836130d4565b60208301905092915050565b6000613090838361344f565b905092915050565b60006130a4838361363b565b905092915050565b60006130b88383613735565b905092915050565b60006130cc8383613785565b905092915050565b6130dd81613d17565b82525050565b6130ec81613d05565b82525050565b60006130fd82613af6565b6131078185613b79565b935061311283613aa6565b8060005b8381101561314357815161312a888261306c565b975061313583613b38565b925050600181019050613116565b5085935050505092915050565b600061315b82613b01565b6131658185613b8a565b93508360208202850161317785613ab6565b8060005b858110156131b357848403895281516131948582613084565b945061319f83613b45565b925060208a0199505060018101905061317b565b50829750879550505050505092915050565b60006131d082613b0c565b6131da8185613b9b565b9350836020820285016131ec85613ac6565b8060005b8581101561322857848403895281516132098582613098565b945061321483613b52565b925060208a019950506001810190506131f0565b50829750879550505050505092915050565b600061324582613b17565b61324f8185613bac565b93508360208202850161326185613ad6565b8060005b8581101561329d578484038952815161327e85826130ac565b945061328983613b5f565b925060208a01995050600181019050613265565b50829750879550505050505092915050565b60006132ba82613b22565b6132c48185613bbd565b9350836020820285016132d685613ae6565b8060005b8581101561331257848403895281516132f385826130c0565b94506132fe83613b6c565b925060208a019950506001810190506132da565b50829750879550505050505092915050565b61332d81613d29565b82525050565b61333c81613d85565b82525050565b61334b81613d97565b82525050565b600061335c82613b2d565b6133668185613bce565b9350613376818560208601613db8565b61337f81613fca565b840191505092915050565b600061339582613b2d565b61339f8185613bdf565b93506133af818560208601613db8565b6133b881613fca565b840191505092915050565b60006133d0604483613bdf565b91506133db82613fdb565b606082019050919050565b60006133f3601383613bdf565b91506133fe82614050565b602082019050919050565b6000613416604b83613bdf565b915061342182614079565b606082019050919050565b6000613439601f83613bdf565b9150613444826140ee565b602082019050919050565b60006101408301600083015161346860008601826130e3565b50602083015161347b60208601826137fb565b50604083015184820360408601526134938282613351565b915050606083015184820360608601526134ad8282613351565b915050608083015184820360808601526134c78282613351565b91505060a083015184820360a08601526134e18282613351565b91505060c08301516134f660c08601826137fb565b5060e083015161350960e08601826137fb565b5061010083015161351e610100860182613333565b5061012083015184820361012086015261353882826130f2565b9150508091505092915050565b60006101408301600083015161355e60008601826130e3565b50602083015161357160208601826137fb565b50604083015184820360408601526135898282613351565b915050606083015184820360608601526135a38282613351565b915050608083015184820360808601526135bd8282613351565b91505060a083015184820360a08601526135d78282613351565b91505060c08301516135ec60c08601826137fb565b5060e08301516135ff60e08601826137fb565b50610100830151613614610100860182613333565b5061012083015184820361012086015261362e82826130f2565b9150508091505092915050565b600060a08301600083015161365360008601826130e3565b506020830151848203602086015261366b8282613351565b915050604083015184820360408601526136858282613351565b915050606083015161369a60608601826137fb565b5060808301516136ad6080860182613342565b508091505092915050565b600060a0830160008301516136d060008601826130e3565b50602083015184820360208601526136e88282613351565b915050604083015184820360408601526137028282613351565b915050606083015161371760608601826137fb565b50608083015161372a6080860182613342565b508091505092915050565b600060608301600083015161374d60008601826130e3565b50602083015184820360208601526137658282613351565b915050604083015161377a60408601826137fb565b508091505092915050565b600060a08301600083015161379d60008601826130e3565b5060208301516137b060208601826137fb565b50604083015184820360408601526137c88282613351565b91505060608301516137dd60608601826137fb565b5060808301516137f060808601826137fb565b508091505092915050565b61380481613d7b565b82525050565b61381381613d7b565b82525050565b600060208201905081810360008301526138338184613150565b905092915050565b6000602082019050818103600083015261385581846131c5565b905092915050565b60006020820190508181036000830152613877818461323a565b905092915050565b6000602082019050818103600083015261389981846132af565b905092915050565b60006020820190506138b66000830184613324565b92915050565b600060408201905081810360008301526138d6818561338a565b90506138e5602083018461380a565b9392505050565b60006020820190508181036000830152613905816133c3565b9050919050565b60006020820190508181036000830152613925816133e6565b9050919050565b6000602082019050818103600083015261394581613409565b9050919050565b600060208201905081810360008301526139658161342c565b9050919050565b600060208201905081810360008301526139868184613545565b905092915050565b600060208201905081810360008301526139a881846136b8565b905092915050565b60006020820190506139c5600083018461380a565b92915050565b60006040820190506139e0600083018561380a565b81810360208301526139f2818461338a565b90509392505050565b6000604082019050613a10600083018561380a565b613a1d602083018461380a565b9392505050565b6000613a2e613a3f565b9050613a3a8282613e1d565b919050565b6000604051905090565b600067ffffffffffffffff821115613a6457613a63613f82565b5b602082029050602081019050919050565b600067ffffffffffffffff821115613a9057613a8f613f82565b5b613a9982613fca565b9050602081019050919050565b6000819050602082019050919050565b6000819050602082019050919050565b6000819050602082019050919050565b6000819050602082019050919050565b6000819050602082019050919050565b600081519050919050565b600081519050919050565b600081519050919050565b600081519050919050565b600081519050919050565b600081519050919050565b6000602082019050919050565b6000602082019050919050565b6000602082019050919050565b6000602082019050919050565b6000602082019050919050565b600082825260208201905092915050565b600082825260208201905092915050565b600082825260208201905092915050565b600082825260208201905092915050565b600082825260208201905092915050565b600082825260208201905092915050565b600082825260208201905092915050565b6000613bfb82613d7b565b9150613c0683613d7b565b9250827fffffffffffffffffffffffffffffffffffffffffffffffffffffffffffffffff03821115613c3b57613c3a613e97565b5b828201905092915050565b6000613c5182613d7b565b9150613c5c83613d7b565b925082613c6c57613c6b613ec6565b5b828204905092915050565b6000613c8282613d7b565b9150613c8d83613d7b565b9250817fffffffffffffffffffffffffffffffffffffffffffffffffffffffffffffffff0483118215151615613cc657613cc5613e97565b5b828202905092915050565b6000613cdc82613d7b565b9150613ce783613d7b565b925082821015613cfa57613cf9613e97565b5b828203905092915050565b6000613d1082613d5b565b9050919050565b6000613d2282613d5b565b9050919050565b60008115159050919050565b6000819050613d4382614117565b919050565b6000819050613d568261412b565b919050565b600073ffffffffffffffffffffffffffffffffffffffff82169050919050565b6000819050919050565b6000613d9082613d35565b9050919050565b6000613da282613d48565b9050919050565b82818337600083830152505050565b60005b83811015613dd6578082015181840152602081019050613dbb565b83811115613de5576000848401525b50505050565b60006002820490506001821680613e0357607f821691505b60208210811415613e1757613e16613f24565b5b50919050565b613e2682613fca565b810181811067ffffffffffffffff82111715613e4557613e44613f82565b5b80604052505050565b6000613e5982613d7b565b91507fffffffffffffffffffffffffffffffffffffffffffffffffffffffffffffffff821415613e8c57613e8b613e97565b5b600182019050919050565b7f4e487b7100000000000000000000000000000000000000000000000000000000600052601160045260246000fd5b7f4e487b7100000000000000000000000000000000000000000000000000000000600052601260045260246000fd5b7f4e487b7100000000000000000000000000000000000000000000000000000000600052602160045260246000fd5b7f4e487b7100000000000000000000000000000000000000000000000000000000600052602260045260246000fd5b7f4e487b7100000000000000000000000000000000000000000000000000000000600052603260045260246000fd5b7f4e487b7100000000000000000000000000000000000000000000000000000000600052604160045260246000fd5b600080fd5b600080fd5b600080fd5b600080fd5b600080fd5b6000601f19601f8301169050919050565b7f596f75206e65656420746f207265676973746572206173206120646f6e6f722060008201527f696e206f7264657220746f2070726f636565642077697468207468697320616360208201527f74696f6e00000000000000000000000000000000000000000000000000000000604082015250565b7f43616d706169676e206e6f742061637469766500000000000000000000000000600082015250565b7f596f75206e65656420746f20626520612061757468656e74696361746564206360008201527f68617269747920696e206f7264657220746f2070726f6365656420776974682060208201527f7468697320616374696f6e000000000000000000000000000000000000000000604082015250565b7f54686973206973206e6f7420612076616c69642063616d706169676e20494400600082015250565b6003811061412857614127613ef5565b5b50565b6005811061413c5761413b613ef5565b5b50565b61414881613d05565b811461415357600080fd5b50565b61415f81613d17565b811461416a57600080fd5b50565b61417681613d7b565b811461418157600080fd5b5056fea264697066735822122098f89d774ddde61eed6f018e8dcb4b9b66e4004286e236c510d4aa2106df4bab64736f6c6343000806003354686520576f726c6420576964652046756e6420666f72204e61747572652c20616c736f206b6e6f776e2061732074686520576f726c642057696c646c6966652046756e642c206973206f6e65206f6620746865206c61726765737420636f6e736572766174696f6e206f7267616e697a6174696f6e7320696e2074686520776f726c64554e49434546206973206120556e69746564204e6174696f6e73206167656e63792064656469636174656420746f2070726f766964696e672068756d616e6974617269616e20616e6420646576656c6f706d656e74616c20617373697374616e636520746f206368696c6472656e20616e64206d6f746865727320696e20646576656c6f70696e6720636f756e74726965732e54686520416d65726963616e205265642043726f737320697320612068756d616e6974617269616e206f7267616e697a6174696f6e20746861742070726f766964657320656d657267656e637920617373697374616e63652c2064697361737465722072656c6965662c20616e6420656475636174696f6e20696e2074686520556e69746564205374617465732e",
  "linkReferences": {},
  "deployedLinkReferences": {}
}