{
  "_format": "hh-sol-artifact-1",
  "contractName": "Charity",
  "sourceName": "contracts/charity.sol",
  "abi": [
    {
      "inputs": [],
      "stateMutability": "nonpayable",
      "type": "constructor"
    },
    {
      "inputs": [
        {
          "internalType": "address",
          "name": "_functionCaller",
          "type": "address"
        }
      ],
      "name": "checkIsCharityOrg",
      "outputs": [
        {
          "internalType": "bool",
          "name": "",
          "type": "bool"
        }
      ],
      "stateMutability": "view",
      "type": "function"
    },
    {
      "inputs": [
        {
          "internalType": "address",
          "name": "_functionCaller",
          "type": "address"
        }
      ],
      "name": "checkIsDonor",
      "outputs": [
        {
          "internalType": "bool",
          "name": "",
          "type": "bool"
        }
      ],
      "stateMutability": "view",
      "type": "function"
    },
    {
      "inputs": [
        {
          "internalType": "uint256",
          "name": "_campaignId",
          "type": "uint256"
        }
      ],
      "name": "checkIsValidCampaign",
      "outputs": [
        {
          "internalType": "bool",
          "name": "",
          "type": "bool"
        }
      ],
      "stateMutability": "view",
      "type": "function"
    },
    {
      "inputs": [
        {
          "internalType": "string",
          "name": "_campaignName",
          "type": "string"
        },
        {
          "internalType": "string",
          "name": "_campaignDesc",
          "type": "string"
        },
        {
          "internalType": "string",
          "name": "_dueDate",
          "type": "string"
        },
        {
          "internalType": "string",
          "name": "_acceptedPaymentMethod",
          "type": "string"
        },
        {
          "internalType": "uint256",
          "name": "_adminFee",
          "type": "uint256"
        },
        {
          "internalType": "address payable[]",
          "name": "_beneficiaries",
          "type": "address[]"
        }
      ],
      "name": "createCampaign",
      "outputs": [],
      "stateMutability": "nonpayable",
      "type": "function"
    },
    {
      "inputs": [
        {
          "internalType": "uint256",
          "name": "_campaignId",
          "type": "uint256"
        }
      ],
      "name": "donate",
      "outputs": [],
      "stateMutability": "payable",
      "type": "function"
    },
    {
      "inputs": [],
      "name": "getAllCampaign",
      "outputs": [
        {
          "components": [
            {
              "internalType": "address",
              "name": "campaignOwner",
              "type": "address"
            },
            {
              "internalType": "uint256",
              "name": "campaignId",
              "type": "uint256"
            },
            {
              "internalType": "string",
              "name": "campaignName",
              "type": "string"
            },
            {
              "internalType": "string",
              "name": "campaignDesc",
              "type": "string"
            },
            {
              "internalType": "string",
              "name": "dueDate",
              "type": "string"
            },
            {
              "internalType": "string",
              "name": "acceptedPaymentMethod",
              "type": "string"
            },
            {
              "internalType": "uint256",
              "name": "adminFee",
              "type": "uint256"
            },
            {
              "internalType": "uint256",
              "name": "raisedAmount",
              "type": "uint256"
            },
            {
              "internalType": "enum Charity.CampaignState",
              "name": "campaignState",
              "type": "uint8"
            },
            {
              "internalType": "address payable[]",
              "name": "beneficiaries",
              "type": "address[]"
            }
          ],
          "internalType": "struct Charity.Campaign[]",
          "name": "",
          "type": "tuple[]"
        }
      ],
      "stateMutability": "view",
      "type": "function"
    },
    {
      "inputs": [],
      "name": "getAllCharityOrg",
      "outputs": [
        {
          "components": [
            {
              "internalType": "address",
              "name": "charityAddress",
              "type": "address"
            },
            {
              "internalType": "string",
              "name": "charityName",
              "type": "string"
            },
            {
              "internalType": "string",
              "name": "charityDesc",
              "type": "string"
            },
            {
              "internalType": "uint256",
              "name": "charityId",
              "type": "uint256"
            },
            {
              "internalType": "string",
              "name": "reputationLevel",
              "type": "string"
            }
          ],
          "internalType": "struct Charity.CharityOrg[]",
          "name": "",
          "type": "tuple[]"
        }
      ],
      "stateMutability": "view",
      "type": "function"
    },
    {
      "inputs": [
        {
          "internalType": "uint256",
          "name": "_campaignId",
          "type": "uint256"
        }
      ],
      "name": "getCampaign",
      "outputs": [
        {
          "components": [
            {
              "internalType": "address",
              "name": "campaignOwner",
              "type": "address"
            },
            {
              "internalType": "uint256",
              "name": "campaignId",
              "type": "uint256"
            },
            {
              "internalType": "string",
              "name": "campaignName",
              "type": "string"
            },
            {
              "internalType": "string",
              "name": "campaignDesc",
              "type": "string"
            },
            {
              "internalType": "string",
              "name": "dueDate",
              "type": "string"
            },
            {
              "internalType": "string",
              "name": "acceptedPaymentMethod",
              "type": "string"
            },
            {
              "internalType": "uint256",
              "name": "adminFee",
              "type": "uint256"
            },
            {
              "internalType": "uint256",
              "name": "raisedAmount",
              "type": "uint256"
            },
            {
              "internalType": "enum Charity.CampaignState",
              "name": "campaignState",
              "type": "uint8"
            },
            {
              "internalType": "address payable[]",
              "name": "beneficiaries",
              "type": "address[]"
            }
          ],
          "internalType": "struct Charity.Campaign",
          "name": "retrievedCampaign",
          "type": "tuple"
        }
      ],
      "stateMutability": "view",
      "type": "function"
    },
    {
      "inputs": [
        {
          "internalType": "uint256",
          "name": "_charityId",
          "type": "uint256"
        }
      ],
      "name": "getCharityOrg",
      "outputs": [
        {
          "components": [
            {
              "internalType": "address",
              "name": "charityAddress",
              "type": "address"
            },
            {
              "internalType": "string",
              "name": "charityName",
              "type": "string"
            },
            {
              "internalType": "string",
              "name": "charityDesc",
              "type": "string"
            },
            {
              "internalType": "uint256",
              "name": "charityId",
              "type": "uint256"
            },
            {
              "internalType": "string",
              "name": "reputationLevel",
              "type": "string"
            }
          ],
          "internalType": "struct Charity.CharityOrg",
          "name": "targetCharityOrg",
          "type": "tuple"
        }
      ],
      "stateMutability": "view",
      "type": "function"
    },
    {
      "inputs": [
        {
          "internalType": "string",
          "name": "_charityName",
          "type": "string"
        }
      ],
      "name": "registerAsCharityOrg",
      "outputs": [
        {
          "components": [
            {
              "internalType": "address",
              "name": "charityAddress",
              "type": "address"
            },
            {
              "internalType": "string",
              "name": "charityName",
              "type": "string"
            },
            {
              "internalType": "string",
              "name": "charityDesc",
              "type": "string"
            },
            {
              "internalType": "uint256",
              "name": "charityId",
              "type": "uint256"
            },
            {
              "internalType": "string",
              "name": "reputationLevel",
              "type": "string"
            }
          ],
          "internalType": "struct Charity.CharityOrg[]",
          "name": "",
          "type": "tuple[]"
        }
      ],
      "stateMutability": "nonpayable",
      "type": "function"
    },
    {
      "inputs": [
        {
          "internalType": "string",
          "name": "_donorName",
          "type": "string"
        }
      ],
      "name": "registerAsDonor",
      "outputs": [
        {
          "components": [
            {
              "internalType": "address",
              "name": "donorAddress",
              "type": "address"
            },
            {
              "internalType": "string",
              "name": "donorName",
              "type": "string"
            },
            {
              "internalType": "uint256",
              "name": "donorId",
              "type": "uint256"
            }
          ],
          "internalType": "struct Charity.Donor[]",
          "name": "",
          "type": "tuple[]"
        }
      ],
      "stateMutability": "nonpayable",
      "type": "function"
    },
    {
      "inputs": [
        {
          "internalType": "uint256",
          "name": "_campaignId",
          "type": "uint256"
        }
      ],
      "name": "releaseFund",
      "outputs": [],
      "stateMutability": "nonpayable",
      "type": "function"
    }
  ],
  "bytecode": "0x60806040523480156200001157600080fd5b5060006040518060a00160405280600073ffffffffffffffffffffffffffffffffffffffff1681526020016040518060400160405280600881526020017f52656463726f737300000000000000000000000000000000000000000000000081525081526020016040518060c00160405280608e815260200162003780608e91398152602001600181526020016040518060400160405280600581526020017f4d616a6f72000000000000000000000000000000000000000000000000000000815250815250908060018154018082558091505060019003906000526020600020906005020160009091909190915060008201518160000160006101000a81548173ffffffffffffffffffffffffffffffffffffffff021916908373ffffffffffffffffffffffffffffffffffffffff160217905550602082015181600101908051906020019062000164929190620004ef565b50604082015181600201908051906020019062000183929190620004ef565b50606082015181600301556080820151816004019080519060200190620001ac929190620004ef565b50505060006040518060a00160405280600073ffffffffffffffffffffffffffffffffffffffff1681526020016040518060400160405280600681526020017f554e49434546000000000000000000000000000000000000000000000000000081525081526020016040518060c0016040528060938152602001620036ed609391398152602001600281526020016040518060400160405280600581526020017f4d616a6f72000000000000000000000000000000000000000000000000000000815250815250908060018154018082558091505060019003906000526020600020906005020160009091909190915060008201518160000160006101000a81548173ffffffffffffffffffffffffffffffffffffffff021916908373ffffffffffffffffffffffffffffffffffffffff160217905550602082015181600101908051906020019062000301929190620004ef565b50604082015181600201908051906020019062000320929190620004ef565b5060608201518160030155608082015181600401908051906020019062000349929190620004ef565b50505060006040518060a00160405280600073ffffffffffffffffffffffffffffffffffffffff1681526020016040518060400160405280600381526020017f575746000000000000000000000000000000000000000000000000000000000081525081526020016040518060c001604052806084815260200162003669608491398152602001600381526020016040518060400160405280600581526020017f4d616a6f72000000000000000000000000000000000000000000000000000000815250815250908060018154018082558091505060019003906000526020600020906005020160009091909190915060008201518160000160006101000a81548173ffffffffffffffffffffffffffffffffffffffff021916908373ffffffffffffffffffffffffffffffffffffffff16021790555060208201518160010190805190602001906200049e929190620004ef565b506040820151816002019080519060200190620004bd929190620004ef565b50606082015181600301556080820151816004019080519060200190620004e6929190620004ef565b50505062000604565b828054620004fd906200059f565b90600052602060002090601f0160209004810192826200052157600085556200056d565b82601f106200053c57805160ff19168380011785556200056d565b828001600101855582156200056d579182015b828111156200056c5782518255916020019190600101906200054f565b5b5090506200057c919062000580565b5090565b5b808211156200059b57600081600090555060010162000581565b5090565b60006002820490506001821680620005b857607f821691505b60208210811415620005cf57620005ce620005d5565b5b50919050565b7f4e487b7100000000000000000000000000000000000000000000000000000000600052602260045260246000fd5b61305580620006146000396000f3fe6080604052600436106100a75760003560e01c806397d224771161006457806397d22477146101f6578063cd967f3a1461021f578063e77309c31461025c578063ec9c6a0e14610299578063f14faf6f146102d6578063f1841a7c146102f2576100a7565b80631a71eae1146100ac5780632016775e146100e957806335951cba146101145780634ca079f2146101515780635598f8cc1461017c57806395426f39146101b9575b600080fd5b3480156100b857600080fd5b506100d360048036038101906100ce9190612098565b61031b565b6040516100e091906128ad565b60405180910390f35b3480156100f557600080fd5b506100fe61053f565b60405161010b919061288b565b60405180910390f35b34801561012057600080fd5b5061013b6004803603810190610136919061206b565b6107b4565b60405161014891906128cf565b60405180910390f35b34801561015d57600080fd5b5061016661086a565b6040516101739190612869565b60405180910390f35b34801561018857600080fd5b506101a3600480360381019061019e91906121fa565b610c4f565b6040516101b0919061294a565b60405180910390f35b3480156101c557600080fd5b506101e060048036038101906101db91906121fa565b6110b3565b6040516101ed91906128cf565b60405180910390f35b34801561020257600080fd5b5061021d600480360381019061021891906121fa565b61111d565b005b34801561022b57600080fd5b50610246600480360381019061024191906121fa565b6112a0565b604051610253919061296c565b60405180910390f35b34801561026857600080fd5b50610283600480360381019061027e9190612098565b61154a565b604051610290919061288b565b60405180910390f35b3480156102a557600080fd5b506102c060048036038101906102bb919061206b565b61193e565b6040516102cd91906128cf565b60405180910390f35b6102f060048036038101906102eb91906121fa565b6119f4565b005b3480156102fe57600080fd5b50610319600480360381019061031491906120e1565b611b17565b005b6060600160405180606001604052803373ffffffffffffffffffffffffffffffffffffffff168152602001848152602001600180549050815250908060018154018082558091505060019003906000526020600020906003020160009091909190915060008201518160000160006101000a81548173ffffffffffffffffffffffffffffffffffffffff021916908373ffffffffffffffffffffffffffffffffffffffff16021790555060208201518160010190805190602001906103e1929190611d31565b506040820151816002015550506001805480602002602001604051908101604052809291908181526020016000905b8282101561053457838290600052602060002090600302016040518060600160405290816000820160009054906101000a900473ffffffffffffffffffffffffffffffffffffffff1673ffffffffffffffffffffffffffffffffffffffff1673ffffffffffffffffffffffffffffffffffffffff16815260200160018201805461049990612cc3565b80601f01602080910402602001604051908101604052809291908181526020018280546104c590612cc3565b80156105125780601f106104e757610100808354040283529160200191610512565b820191906000526020600020905b8154815290600101906020018083116104f557829003601f168201915b5050505050815260200160028201548152505081526020019060010190610410565b505050509050919050565b60606000805480602002602001604051908101604052809291908181526020016000905b828210156107ab57838290600052602060002090600502016040518060a00160405290816000820160009054906101000a900473ffffffffffffffffffffffffffffffffffffffff1673ffffffffffffffffffffffffffffffffffffffff1673ffffffffffffffffffffffffffffffffffffffff1681526020016001820180546105ec90612cc3565b80601f016020809104026020016040519081016040528092919081815260200182805461061890612cc3565b80156106655780601f1061063a57610100808354040283529160200191610665565b820191906000526020600020905b81548152906001019060200180831161064857829003601f168201915b5050505050815260200160028201805461067e90612cc3565b80601f01602080910402602001604051908101604052809291908181526020018280546106aa90612cc3565b80156106f75780601f106106cc576101008083540402835291602001916106f7565b820191906000526020600020905b8154815290600101906020018083116106da57829003601f168201915b505050505081526020016003820154815260200160048201805461071a90612cc3565b80601f016020809104026020016040519081016040528092919081815260200182805461074690612cc3565b80156107935780601f1061076857610100808354040283529160200191610793565b820191906000526020600020905b81548152906001019060200180831161077657829003601f168201915b50505050508152505081526020019060010190610563565b50505050905090565b600080600090505b60018054905081101561085f578273ffffffffffffffffffffffffffffffffffffffff16600182815481106107f4576107f3612e2b565b5b906000526020600020906003020160000160009054906101000a900473ffffffffffffffffffffffffffffffffffffffff1673ffffffffffffffffffffffffffffffffffffffff16141561084c576001915050610865565b808061085790612d26565b9150506107bc565b50600090505b919050565b60606002805480602002602001604051908101604052809291908181526020016000905b82821015610c4657838290600052602060002090600a0201604051806101400160405290816000820160009054906101000a900473ffffffffffffffffffffffffffffffffffffffff1673ffffffffffffffffffffffffffffffffffffffff1673ffffffffffffffffffffffffffffffffffffffff1681526020016001820154815260200160028201805461092290612cc3565b80601f016020809104026020016040519081016040528092919081815260200182805461094e90612cc3565b801561099b5780601f106109705761010080835404028352916020019161099b565b820191906000526020600020905b81548152906001019060200180831161097e57829003601f168201915b505050505081526020016003820180546109b490612cc3565b80601f01602080910402602001604051908101604052809291908181526020018280546109e090612cc3565b8015610a2d5780601f10610a0257610100808354040283529160200191610a2d565b820191906000526020600020905b815481529060010190602001808311610a1057829003601f168201915b50505050508152602001600482018054610a4690612cc3565b80601f0160208091040260200160405190810160405280929190818152602001828054610a7290612cc3565b8015610abf5780601f10610a9457610100808354040283529160200191610abf565b820191906000526020600020905b815481529060010190602001808311610aa257829003601f168201915b50505050508152602001600582018054610ad890612cc3565b80601f0160208091040260200160405190810160405280929190818152602001828054610b0490612cc3565b8015610b515780601f10610b2657610100808354040283529160200191610b51565b820191906000526020600020905b815481529060010190602001808311610b3457829003601f168201915b5050505050815260200160068201548152602001600782015481526020016008820160009054906101000a900460ff166002811115610b9357610b92612dcd565b5b6002811115610ba557610ba4612dcd565b5b815260200160098201805480602002602001604051908101604052809291908181526020018280548015610c2e57602002820191906000526020600020905b8160009054906101000a900473ffffffffffffffffffffffffffffffffffffffff1673ffffffffffffffffffffffffffffffffffffffff1681526020019060010190808311610be4575b5050505050815250508152602001906001019061088e565b50505050905090565b610c57611db7565b81610c61816110b3565b610ca0576040517f08c379a0000000000000000000000000000000000000000000000000000000008152600401610c979061292a565b60405180910390fd5b60005b6002805490508110156110ab578360028281548110610cc557610cc4612e2b565b5b90600052602060002090600a02016001015414156110985760028181548110610cf157610cf0612e2b565b5b90600052602060002090600a0201604051806101400160405290816000820160009054906101000a900473ffffffffffffffffffffffffffffffffffffffff1673ffffffffffffffffffffffffffffffffffffffff1673ffffffffffffffffffffffffffffffffffffffff16815260200160018201548152602001600282018054610d7b90612cc3565b80601f0160208091040260200160405190810160405280929190818152602001828054610da790612cc3565b8015610df45780601f10610dc957610100808354040283529160200191610df4565b820191906000526020600020905b815481529060010190602001808311610dd757829003601f168201915b50505050508152602001600382018054610e0d90612cc3565b80601f0160208091040260200160405190810160405280929190818152602001828054610e3990612cc3565b8015610e865780601f10610e5b57610100808354040283529160200191610e86565b820191906000526020600020905b815481529060010190602001808311610e6957829003601f168201915b50505050508152602001600482018054610e9f90612cc3565b80601f0160208091040260200160405190810160405280929190818152602001828054610ecb90612cc3565b8015610f185780601f10610eed57610100808354040283529160200191610f18565b820191906000526020600020905b815481529060010190602001808311610efb57829003601f168201915b50505050508152602001600582018054610f3190612cc3565b80601f0160208091040260200160405190810160405280929190818152602001828054610f5d90612cc3565b8015610faa5780601f10610f7f57610100808354040283529160200191610faa565b820191906000526020600020905b815481529060010190602001808311610f8d57829003601f168201915b5050505050815260200160068201548152602001600782015481526020016008820160009054906101000a900460ff166002811115610fec57610feb612dcd565b5b6002811115610ffe57610ffd612dcd565b5b81526020016009820180548060200260200160405190810160405280929190818152602001828054801561108757602002820191906000526020600020905b8160009054906101000a900473ffffffffffffffffffffffffffffffffffffffff1673ffffffffffffffffffffffffffffffffffffffff168152602001906001019080831161103d575b5050505050815250509250506110ad565b80806110a390612d26565b915050610ca3565b505b50919050565b600080600090505b6002805490508110156111125782600282815481106110dd576110dc612e2b565b5b90600052602060002090600a02016001015414156110ff576001915050611118565b808061110a90612d26565b9150506110bb565b50600090505b919050565b80611127816110b3565b611166576040517f08c379a000000000000000000000000000000000000000000000000000000000815260040161115d9061292a565b60405180910390fd5b61116f3361193e565b6111ae576040517f08c379a00000000000000000000000000000000000000000000000000000000081526004016111a59061290a565b60405180910390fd5b60006111b983610c4f565b90506000816101200151905060008260e00151825160016111da9190612b77565b6111e49190612ba8565b905060005b82518110156112665782818151811061120557611204612e2b565b5b602002602001015173ffffffffffffffffffffffffffffffffffffffff166108fc839081150290604051600060405180830381858888f19350505050158015611252573d6000803e3d6000fd5b50808061125e90612d26565b9150506111e9565b506002836101000190600281111561128157611280612dcd565b5b9081600281111561129557611294612dcd565b5b815250505050505050565b6112a8611e32565b60005b6000805490508110156115435782600082815481106112cd576112cc612e2b565b5b906000526020600020906005020160030154141561153057600081815481106112f9576112f8612e2b565b5b90600052602060002090600502016040518060a00160405290816000820160009054906101000a900473ffffffffffffffffffffffffffffffffffffffff1673ffffffffffffffffffffffffffffffffffffffff1673ffffffffffffffffffffffffffffffffffffffff16815260200160018201805461137890612cc3565b80601f01602080910402602001604051908101604052809291908181526020018280546113a490612cc3565b80156113f15780601f106113c6576101008083540402835291602001916113f1565b820191906000526020600020905b8154815290600101906020018083116113d457829003601f168201915b5050505050815260200160028201805461140a90612cc3565b80601f016020809104026020016040519081016040528092919081815260200182805461143690612cc3565b80156114835780601f1061145857610100808354040283529160200191611483565b820191906000526020600020905b81548152906001019060200180831161146657829003601f168201915b50505050508152602001600382015481526020016004820180546114a690612cc3565b80601f01602080910402602001604051908101604052809291908181526020018280546114d290612cc3565b801561151f5780601f106114f45761010080835404028352916020019161151f565b820191906000526020600020905b81548152906001019060200180831161150257829003601f168201915b505050505081525050915050611545565b808061153b90612d26565b9150506112ab565b505b919050565b606060006040518060a001604052803373ffffffffffffffffffffffffffffffffffffffff1681526020018481526020016040518060400160405280600b81526020017f63686172697479446573630000000000000000000000000000000000000000008152508152602001600081526020016040518060400160405280600581526020017f536d616c6c000000000000000000000000000000000000000000000000000000815250815250908060018154018082558091505060019003906000526020600020906005020160009091909190915060008201518160000160006101000a81548173ffffffffffffffffffffffffffffffffffffffff021916908373ffffffffffffffffffffffffffffffffffffffff1602179055506020820151816001019080519060200190611682929190611d31565b50604082015181600201908051906020019061169f929190611d31565b506060820151816003015560808201518160040190805190602001906116c6929190611d31565b5050506000805480602002602001604051908101604052809291908181526020016000905b8282101561193357838290600052602060002090600502016040518060a00160405290816000820160009054906101000a900473ffffffffffffffffffffffffffffffffffffffff1673ffffffffffffffffffffffffffffffffffffffff1673ffffffffffffffffffffffffffffffffffffffff16815260200160018201805461177490612cc3565b80601f01602080910402602001604051908101604052809291908181526020018280546117a090612cc3565b80156117ed5780601f106117c2576101008083540402835291602001916117ed565b820191906000526020600020905b8154815290600101906020018083116117d057829003601f168201915b5050505050815260200160028201805461180690612cc3565b80601f016020809104026020016040519081016040528092919081815260200182805461183290612cc3565b801561187f5780601f106118545761010080835404028352916020019161187f565b820191906000526020600020905b81548152906001019060200180831161186257829003601f168201915b50505050508152602001600382015481526020016004820180546118a290612cc3565b80601f01602080910402602001604051908101604052809291908181526020018280546118ce90612cc3565b801561191b5780601f106118f05761010080835404028352916020019161191b565b820191906000526020600020905b8154815290600101906020018083116118fe57829003601f168201915b505050505081525050815260200190600101906116eb565b505050509050919050565b600080600090505b6000805490508110156119e9578273ffffffffffffffffffffffffffffffffffffffff166000828154811061197e5761197d612e2b565b5b906000526020600020906005020160000160009054906101000a900473ffffffffffffffffffffffffffffffffffffffff1673ffffffffffffffffffffffffffffffffffffffff1614156119d65760019150506119ef565b80806119e190612d26565b915050611946565b50600090505b919050565b6119fd336107b4565b611a3c576040517f08c379a0000000000000000000000000000000000000000000000000000000008152600401611a33906128ea565b60405180910390fd5b80611a46816110b3565b611a85576040517f08c379a0000000000000000000000000000000000000000000000000000000008152600401611a7c9061292a565b60405180910390fd5b60005b600280549050811015611b12578260028281548110611aaa57611aa9612e2b565b5b90600052602060002090600a0201600101541415611aff573460028281548110611ad757611ad6612e2b565b5b90600052602060002090600a02016007016000828254611af79190612b21565b925050819055505b8080611b0a90612d26565b915050611a88565b505050565b611b203361193e565b611b5f576040517f08c379a0000000000000000000000000000000000000000000000000000000008152600401611b569061290a565b60405180910390fd5b60026040518061014001604052803373ffffffffffffffffffffffffffffffffffffffff16815260200160028054905081526020018881526020018781526020018681526020018581526020018481526020016000815260200160006002811115611bcd57611bcc612dcd565b5b81526020018381525090806001815401808255809150506001900390600052602060002090600a020160009091909190915060008201518160000160006101000a81548173ffffffffffffffffffffffffffffffffffffffff021916908373ffffffffffffffffffffffffffffffffffffffff160217905550602082015181600101556040820151816002019080519060200190611c6c929190611d31565b506060820151816003019080519060200190611c89929190611d31565b506080820151816004019080519060200190611ca6929190611d31565b5060a0820151816005019080519060200190611cc3929190611d31565b5060c0820151816006015560e082015181600701556101008201518160080160006101000a81548160ff02191690836002811115611d0457611d03612dcd565b5b0217905550610120820151816009019080519060200190611d26929190611e77565b505050505050505050565b828054611d3d90612cc3565b90600052602060002090601f016020900481019282611d5f5760008555611da6565b82601f10611d7857805160ff1916838001178555611da6565b82800160010185558215611da6579182015b82811115611da5578251825591602001919060010190611d8a565b5b509050611db39190611f01565b5090565b604051806101400160405280600073ffffffffffffffffffffffffffffffffffffffff1681526020016000815260200160608152602001606081526020016060815260200160608152602001600081526020016000815260200160006002811115611e2557611e24612dcd565b5b8152602001606081525090565b6040518060a00160405280600073ffffffffffffffffffffffffffffffffffffffff168152602001606081526020016060815260200160008152602001606081525090565b828054828255906000526020600020908101928215611ef0579160200282015b82811115611eef5782518260006101000a81548173ffffffffffffffffffffffffffffffffffffffff021916908373ffffffffffffffffffffffffffffffffffffffff16021790555091602001919060010190611e97565b5b509050611efd9190611f01565b5090565b5b80821115611f1a576000816000905550600101611f02565b5090565b6000611f31611f2c846129b3565b61298e565b90508083825260208201905082856020860282011115611f5457611f53612e8e565b5b60005b85811015611f845781611f6a8882611fe5565b845260208401935060208301925050600181019050611f57565b5050509392505050565b6000611fa1611f9c846129df565b61298e565b905082815260208101848484011115611fbd57611fbc612e93565b5b611fc8848285612c81565b509392505050565b600081359050611fdf81612fda565b92915050565b600081359050611ff481612ff1565b92915050565b600082601f83011261200f5761200e612e89565b5b813561201f848260208601611f1e565b91505092915050565b600082601f83011261203d5761203c612e89565b5b813561204d848260208601611f8e565b91505092915050565b60008135905061206581613008565b92915050565b60006020828403121561208157612080612e9d565b5b600061208f84828501611fd0565b91505092915050565b6000602082840312156120ae576120ad612e9d565b5b600082013567ffffffffffffffff8111156120cc576120cb612e98565b5b6120d884828501612028565b91505092915050565b60008060008060008060c087890312156120fe576120fd612e9d565b5b600087013567ffffffffffffffff81111561211c5761211b612e98565b5b61212889828a01612028565b965050602087013567ffffffffffffffff81111561214957612148612e98565b5b61215589828a01612028565b955050604087013567ffffffffffffffff81111561217657612175612e98565b5b61218289828a01612028565b945050606087013567ffffffffffffffff8111156121a3576121a2612e98565b5b6121af89828a01612028565b93505060806121c089828a01612056565b92505060a087013567ffffffffffffffff8111156121e1576121e0612e98565b5b6121ed89828a01611ffa565b9150509295509295509295565b6000602082840312156122105761220f612e9d565b5b600061221e84828501612056565b91505092915050565b6000612233838361227b565b60208301905092915050565b600061224b8383612516565b905092915050565b600061225f8383612702565b905092915050565b6000612273838361280a565b905092915050565b61228481612c14565b82525050565b61229381612c02565b82525050565b60006122a482612a50565b6122ae8185612abb565b93506122b983612a10565b8060005b838110156122ea5781516122d18882612227565b97506122dc83612a87565b9250506001810190506122bd565b5085935050505092915050565b600061230282612a5b565b61230c8185612acc565b93508360208202850161231e85612a20565b8060005b8581101561235a578484038952815161233b858261223f565b945061234683612a94565b925060208a01995050600181019050612322565b50829750879550505050505092915050565b600061237782612a66565b6123818185612add565b93508360208202850161239385612a30565b8060005b858110156123cf57848403895281516123b08582612253565b94506123bb83612aa1565b925060208a01995050600181019050612397565b50829750879550505050505092915050565b60006123ec82612a71565b6123f68185612aee565b93508360208202850161240885612a40565b8060005b8581101561244457848403895281516124258582612267565b945061243083612aae565b925060208a0199505060018101905061240c565b50829750879550505050505092915050565b61245f81612c26565b82525050565b61246e81612c6f565b82525050565b600061247f82612a7c565b6124898185612aff565b9350612499818560208601612c90565b6124a281612ea2565b840191505092915050565b60006124ba604483612b10565b91506124c582612eb3565b606082019050919050565b60006124dd604b83612b10565b91506124e882612f28565b606082019050919050565b6000612500601f83612b10565b915061250b82612f9d565b602082019050919050565b60006101408301600083015161252f600086018261228a565b506020830151612542602086018261285a565b506040830151848203604086015261255a8282612474565b915050606083015184820360608601526125748282612474565b9150506080830151848203608086015261258e8282612474565b91505060a083015184820360a08601526125a88282612474565b91505060c08301516125bd60c086018261285a565b5060e08301516125d060e086018261285a565b506101008301516125e5610100860182612465565b506101208301518482036101208601526125ff8282612299565b9150508091505092915050565b600061014083016000830151612625600086018261228a565b506020830151612638602086018261285a565b50604083015184820360408601526126508282612474565b9150506060830151848203606086015261266a8282612474565b915050608083015184820360808601526126848282612474565b91505060a083015184820360a086015261269e8282612474565b91505060c08301516126b360c086018261285a565b5060e08301516126c660e086018261285a565b506101008301516126db610100860182612465565b506101208301518482036101208601526126f58282612299565b9150508091505092915050565b600060a08301600083015161271a600086018261228a565b50602083015184820360208601526127328282612474565b9150506040830151848203604086015261274c8282612474565b9150506060830151612761606086018261285a565b50608083015184820360808601526127798282612474565b9150508091505092915050565b600060a08301600083015161279e600086018261228a565b50602083015184820360208601526127b68282612474565b915050604083015184820360408601526127d08282612474565b91505060608301516127e5606086018261285a565b50608083015184820360808601526127fd8282612474565b9150508091505092915050565b6000606083016000830151612822600086018261228a565b506020830151848203602086015261283a8282612474565b915050604083015161284f604086018261285a565b508091505092915050565b61286381612c65565b82525050565b6000602082019050818103600083015261288381846122f7565b905092915050565b600060208201905081810360008301526128a5818461236c565b905092915050565b600060208201905081810360008301526128c781846123e1565b905092915050565b60006020820190506128e46000830184612456565b92915050565b60006020820190508181036000830152612903816124ad565b9050919050565b60006020820190508181036000830152612923816124d0565b9050919050565b60006020820190508181036000830152612943816124f3565b9050919050565b60006020820190508181036000830152612964818461260c565b905092915050565b600060208201905081810360008301526129868184612786565b905092915050565b60006129986129a9565b90506129a48282612cf5565b919050565b6000604051905090565b600067ffffffffffffffff8211156129ce576129cd612e5a565b5b602082029050602081019050919050565b600067ffffffffffffffff8211156129fa576129f9612e5a565b5b612a0382612ea2565b9050602081019050919050565b6000819050602082019050919050565b6000819050602082019050919050565b6000819050602082019050919050565b6000819050602082019050919050565b600081519050919050565b600081519050919050565b600081519050919050565b600081519050919050565b600081519050919050565b6000602082019050919050565b6000602082019050919050565b6000602082019050919050565b6000602082019050919050565b600082825260208201905092915050565b600082825260208201905092915050565b600082825260208201905092915050565b600082825260208201905092915050565b600082825260208201905092915050565b600082825260208201905092915050565b6000612b2c82612c65565b9150612b3783612c65565b9250827fffffffffffffffffffffffffffffffffffffffffffffffffffffffffffffffff03821115612b6c57612b6b612d6f565b5b828201905092915050565b6000612b8282612c65565b9150612b8d83612c65565b925082612b9d57612b9c612d9e565b5b828204905092915050565b6000612bb382612c65565b9150612bbe83612c65565b9250817fffffffffffffffffffffffffffffffffffffffffffffffffffffffffffffffff0483118215151615612bf757612bf6612d6f565b5b828202905092915050565b6000612c0d82612c45565b9050919050565b6000612c1f82612c45565b9050919050565b60008115159050919050565b6000819050612c4082612fc6565b919050565b600073ffffffffffffffffffffffffffffffffffffffff82169050919050565b6000819050919050565b6000612c7a82612c32565b9050919050565b82818337600083830152505050565b60005b83811015612cae578082015181840152602081019050612c93565b83811115612cbd576000848401525b50505050565b60006002820490506001821680612cdb57607f821691505b60208210811415612cef57612cee612dfc565b5b50919050565b612cfe82612ea2565b810181811067ffffffffffffffff82111715612d1d57612d1c612e5a565b5b80604052505050565b6000612d3182612c65565b91507fffffffffffffffffffffffffffffffffffffffffffffffffffffffffffffffff821415612d6457612d63612d6f565b5b600182019050919050565b7f4e487b7100000000000000000000000000000000000000000000000000000000600052601160045260246000fd5b7f4e487b7100000000000000000000000000000000000000000000000000000000600052601260045260246000fd5b7f4e487b7100000000000000000000000000000000000000000000000000000000600052602160045260246000fd5b7f4e487b7100000000000000000000000000000000000000000000000000000000600052602260045260246000fd5b7f4e487b7100000000000000000000000000000000000000000000000000000000600052603260045260246000fd5b7f4e487b7100000000000000000000000000000000000000000000000000000000600052604160045260246000fd5b600080fd5b600080fd5b600080fd5b600080fd5b600080fd5b6000601f19601f8301169050919050565b7f596f75206e65656420746f207265676973746572206173206120646f6e6f722060008201527f696e206f7264657220746f2070726f636565642077697468207468697320616360208201527f74696f6e00000000000000000000000000000000000000000000000000000000604082015250565b7f596f75206e65656420746f20626520612061757468656e74696361746564206360008201527f68617269747920696e206f7264657220746f2070726f6365656420776974682060208201527f7468697320616374696f6e000000000000000000000000000000000000000000604082015250565b7f54686973206973206e6f7420612076616c69642063616d706169676e20494400600082015250565b60038110612fd757612fd6612dcd565b5b50565b612fe381612c02565b8114612fee57600080fd5b50565b612ffa81612c14565b811461300557600080fd5b50565b61301181612c65565b811461301c57600080fd5b5056fea2646970667358221220d35ec72de98d21722091baf914c8d1144cace02f76fbd83929bfaa0715ca9bb364736f6c6343000806003354686520576f726c6420576964652046756e6420666f72204e61747572652c20616c736f206b6e6f776e2061732074686520576f726c642057696c646c6966652046756e642c206973206f6e65206f6620746865206c61726765737420636f6e736572766174696f6e206f7267616e697a6174696f6e7320696e2074686520776f726c64554e49434546206973206120556e69746564204e6174696f6e73206167656e63792064656469636174656420746f2070726f766964696e672068756d616e6974617269616e20616e6420646576656c6f706d656e74616c20617373697374616e636520746f206368696c6472656e20616e64206d6f746865727320696e20646576656c6f70696e6720636f756e74726965732e54686520416d65726963616e205265642043726f737320697320612068756d616e6974617269616e206f7267616e697a6174696f6e20746861742070726f766964657320656d657267656e637920617373697374616e63652c2064697361737465722072656c6965662c20616e6420656475636174696f6e20696e2074686520556e69746564205374617465732e",
  "linkReferences": {},
  "deployedLinkReferences": {}
}