{
  "_format": "hh-sol-artifact-1",
  "contractName": "Charity",
  "sourceName": "contracts/charity.sol",
  "abi": [
    {
      "inputs": [],
      "stateMutability": "nonpayable",
      "type": "constructor"
    },
    {
      "inputs": [
        {
          "internalType": "address",
          "name": "_functionCaller",
          "type": "address"
        }
      ],
      "name": "checkIsCharityOrg",
      "outputs": [
        {
          "internalType": "bool",
          "name": "",
          "type": "bool"
        }
      ],
      "stateMutability": "view",
      "type": "function"
    },
    {
      "inputs": [
        {
          "internalType": "address",
          "name": "_functionCaller",
          "type": "address"
        }
      ],
      "name": "checkIsDonor",
      "outputs": [
        {
          "internalType": "bool",
          "name": "",
          "type": "bool"
        }
      ],
      "stateMutability": "view",
      "type": "function"
    },
    {
      "inputs": [
        {
          "internalType": "uint256",
          "name": "_campaignId",
          "type": "uint256"
        }
      ],
      "name": "checkIsValidCampaign",
      "outputs": [
        {
          "internalType": "bool",
          "name": "",
          "type": "bool"
        }
      ],
      "stateMutability": "view",
      "type": "function"
    },
    {
      "inputs": [
        {
          "internalType": "string",
          "name": "_campaignName",
          "type": "string"
        },
        {
          "internalType": "string",
          "name": "_campaignDesc",
          "type": "string"
        },
        {
          "internalType": "string",
          "name": "_dueDate",
          "type": "string"
        },
        {
          "internalType": "string",
          "name": "_acceptedPaymentMethod",
          "type": "string"
        },
        {
          "internalType": "uint256",
          "name": "_adminFee",
          "type": "uint256"
        },
        {
          "internalType": "address payable[]",
          "name": "_beneficiaries",
          "type": "address[]"
        }
      ],
      "name": "createCampaign",
      "outputs": [],
      "stateMutability": "nonpayable",
      "type": "function"
    },
    {
      "inputs": [
        {
          "internalType": "uint256",
          "name": "_campaignId",
          "type": "uint256"
        }
      ],
      "name": "donate",
      "outputs": [],
      "stateMutability": "payable",
      "type": "function"
    },
    {
      "inputs": [],
      "name": "getAllCampaign",
      "outputs": [
        {
          "components": [
            {
              "internalType": "address",
              "name": "campaignOwner",
              "type": "address"
            },
            {
              "internalType": "uint256",
              "name": "campaignId",
              "type": "uint256"
            },
            {
              "internalType": "string",
              "name": "campaignName",
              "type": "string"
            },
            {
              "internalType": "string",
              "name": "campaignDesc",
              "type": "string"
            },
            {
              "internalType": "string",
              "name": "dueDate",
              "type": "string"
            },
            {
              "internalType": "string",
              "name": "acceptedPaymentMethod",
              "type": "string"
            },
            {
              "internalType": "uint256",
              "name": "adminFee",
              "type": "uint256"
            },
            {
              "internalType": "uint256",
              "name": "raisedAmount",
              "type": "uint256"
            },
            {
              "internalType": "enum Charity.CampaignState",
              "name": "campaignState",
              "type": "uint8"
            },
            {
              "internalType": "address payable[]",
              "name": "beneficiaries",
              "type": "address[]"
            }
          ],
          "internalType": "struct Charity.Campaign[]",
          "name": "",
          "type": "tuple[]"
        }
      ],
      "stateMutability": "view",
      "type": "function"
    },
    {
      "inputs": [],
      "name": "getAllCharityOrg",
      "outputs": [
        {
          "components": [
            {
              "internalType": "address",
              "name": "charityAddress",
              "type": "address"
            },
            {
              "internalType": "string",
              "name": "charityName",
              "type": "string"
            },
            {
              "internalType": "string",
              "name": "charityDesc",
              "type": "string"
            },
            {
              "internalType": "uint256",
              "name": "charityId",
              "type": "uint256"
            },
            {
              "internalType": "string",
              "name": "reputationLevel",
              "type": "string"
            }
          ],
          "internalType": "struct Charity.CharityOrg[]",
          "name": "",
          "type": "tuple[]"
        }
      ],
      "stateMutability": "view",
      "type": "function"
    },
    {
      "inputs": [
        {
          "internalType": "uint256",
          "name": "_campaignId",
          "type": "uint256"
        }
      ],
      "name": "getCampaign",
      "outputs": [
        {
          "components": [
            {
              "internalType": "address",
              "name": "campaignOwner",
              "type": "address"
            },
            {
              "internalType": "uint256",
              "name": "campaignId",
              "type": "uint256"
            },
            {
              "internalType": "string",
              "name": "campaignName",
              "type": "string"
            },
            {
              "internalType": "string",
              "name": "campaignDesc",
              "type": "string"
            },
            {
              "internalType": "string",
              "name": "dueDate",
              "type": "string"
            },
            {
              "internalType": "string",
              "name": "acceptedPaymentMethod",
              "type": "string"
            },
            {
              "internalType": "uint256",
              "name": "adminFee",
              "type": "uint256"
            },
            {
              "internalType": "uint256",
              "name": "raisedAmount",
              "type": "uint256"
            },
            {
              "internalType": "enum Charity.CampaignState",
              "name": "campaignState",
              "type": "uint8"
            },
            {
              "internalType": "address payable[]",
              "name": "beneficiaries",
              "type": "address[]"
            }
          ],
          "internalType": "struct Charity.Campaign",
          "name": "retrievedCampaign",
          "type": "tuple"
        }
      ],
      "stateMutability": "view",
      "type": "function"
    },
    {
      "inputs": [
        {
          "internalType": "uint256",
          "name": "_charityId",
          "type": "uint256"
        }
      ],
      "name": "getCharityOrg",
      "outputs": [
        {
          "components": [
            {
              "internalType": "address",
              "name": "charityAddress",
              "type": "address"
            },
            {
              "internalType": "string",
              "name": "charityName",
              "type": "string"
            },
            {
              "internalType": "string",
              "name": "charityDesc",
              "type": "string"
            },
            {
              "internalType": "uint256",
              "name": "charityId",
              "type": "uint256"
            },
            {
              "internalType": "string",
              "name": "reputationLevel",
              "type": "string"
            }
          ],
          "internalType": "struct Charity.CharityOrg",
          "name": "targetCharityOrg",
          "type": "tuple"
        }
      ],
      "stateMutability": "view",
      "type": "function"
    },
    {
      "inputs": [
        {
          "internalType": "string",
          "name": "_charityName",
          "type": "string"
        },
        {
          "internalType": "string",
          "name": "_charityDesc",
          "type": "string"
        }
      ],
      "name": "registerAsCharityOrg",
      "outputs": [
        {
          "components": [
            {
              "internalType": "address",
              "name": "charityAddress",
              "type": "address"
            },
            {
              "internalType": "string",
              "name": "charityName",
              "type": "string"
            },
            {
              "internalType": "string",
              "name": "charityDesc",
              "type": "string"
            },
            {
              "internalType": "uint256",
              "name": "charityId",
              "type": "uint256"
            },
            {
              "internalType": "string",
              "name": "reputationLevel",
              "type": "string"
            }
          ],
          "internalType": "struct Charity.CharityOrg[]",
          "name": "",
          "type": "tuple[]"
        }
      ],
      "stateMutability": "nonpayable",
      "type": "function"
    },
    {
      "inputs": [
        {
          "internalType": "string",
          "name": "_donorName",
          "type": "string"
        }
      ],
      "name": "registerAsDonor",
      "outputs": [
        {
          "components": [
            {
              "internalType": "address",
              "name": "donorAddress",
              "type": "address"
            },
            {
              "internalType": "string",
              "name": "donorName",
              "type": "string"
            },
            {
              "internalType": "uint256",
              "name": "donorId",
              "type": "uint256"
            }
          ],
          "internalType": "struct Charity.Donor[]",
          "name": "",
          "type": "tuple[]"
        }
      ],
      "stateMutability": "nonpayable",
      "type": "function"
    },
    {
      "inputs": [
        {
          "internalType": "uint256",
          "name": "_campaignId",
          "type": "uint256"
        }
      ],
      "name": "releaseFund",
      "outputs": [],
      "stateMutability": "nonpayable",
      "type": "function"
    }
  ],
  "bytecode": "0x60806040523480156200001157600080fd5b5060006040518060a00160405280600073ffffffffffffffffffffffffffffffffffffffff1681526020016040518060400160405280600881526020017f52656463726f737300000000000000000000000000000000000000000000000081525081526020016040518060c00160405280608e815260200162003762608e91398152602001600181526020016040518060400160405280600581526020017f4d616a6f72000000000000000000000000000000000000000000000000000000815250815250908060018154018082558091505060019003906000526020600020906005020160009091909190915060008201518160000160006101000a81548173ffffffffffffffffffffffffffffffffffffffff021916908373ffffffffffffffffffffffffffffffffffffffff160217905550602082015181600101908051906020019062000164929190620004ef565b50604082015181600201908051906020019062000183929190620004ef565b50606082015181600301556080820151816004019080519060200190620001ac929190620004ef565b50505060006040518060a00160405280600073ffffffffffffffffffffffffffffffffffffffff1681526020016040518060400160405280600681526020017f554e49434546000000000000000000000000000000000000000000000000000081525081526020016040518060c0016040528060938152602001620036cf609391398152602001600281526020016040518060400160405280600581526020017f4d616a6f72000000000000000000000000000000000000000000000000000000815250815250908060018154018082558091505060019003906000526020600020906005020160009091909190915060008201518160000160006101000a81548173ffffffffffffffffffffffffffffffffffffffff021916908373ffffffffffffffffffffffffffffffffffffffff160217905550602082015181600101908051906020019062000301929190620004ef565b50604082015181600201908051906020019062000320929190620004ef565b5060608201518160030155608082015181600401908051906020019062000349929190620004ef565b50505060006040518060a00160405280600073ffffffffffffffffffffffffffffffffffffffff1681526020016040518060400160405280600381526020017f575746000000000000000000000000000000000000000000000000000000000081525081526020016040518060c00160405280608481526020016200364b608491398152602001600381526020016040518060400160405280600581526020017f4d616a6f72000000000000000000000000000000000000000000000000000000815250815250908060018154018082558091505060019003906000526020600020906005020160009091909190915060008201518160000160006101000a81548173ffffffffffffffffffffffffffffffffffffffff021916908373ffffffffffffffffffffffffffffffffffffffff16021790555060208201518160010190805190602001906200049e929190620004ef565b506040820151816002019080519060200190620004bd929190620004ef565b50606082015181600301556080820151816004019080519060200190620004e6929190620004ef565b50505062000604565b828054620004fd906200059f565b90600052602060002090601f0160209004810192826200052157600085556200056d565b82601f106200053c57805160ff19168380011785556200056d565b828001600101855582156200056d579182015b828111156200056c5782518255916020019190600101906200054f565b5b5090506200057c919062000580565b5090565b5b808211156200059b57600081600090555060010162000581565b5090565b60006002820490506001821680620005b857607f821691505b60208210811415620005cf57620005ce620005d5565b5b50919050565b7f4e487b7100000000000000000000000000000000000000000000000000000000600052602260045260246000fd5b61303780620006146000396000f3fe6080604052600436106100a75760003560e01c806395426f391161006457806395426f39146101f657806397d2247714610233578063cd967f3a1461025c578063ec9c6a0e14610299578063f14faf6f146102d6578063f1841a7c146102f2576100a7565b80631a71eae1146100ac5780632016775e146100e957806335951cba146101145780633b574189146101515780634ca079f21461018e5780635598f8cc146101b9575b600080fd5b3480156100b857600080fd5b506100d360048036038101906100ce919061205c565b61031b565b6040516100e091906128e9565b60405180910390f35b3480156100f557600080fd5b506100fe61053f565b60405161010b91906128c7565b60405180910390f35b34801561012057600080fd5b5061013b6004803603810190610136919061202f565b6107b4565b604051610148919061290b565b60405180910390f35b34801561015d57600080fd5b50610178600480360381019061017391906120a5565b61086a565b60405161018591906128c7565b60405180910390f35b34801561019a57600080fd5b506101a3610c2e565b6040516101b091906128a5565b60405180910390f35b3480156101c557600080fd5b506101e060048036038101906101db9190612236565b611013565b6040516101ed9190612986565b60405180910390f35b34801561020257600080fd5b5061021d60048036038101906102189190612236565b611477565b60405161022a919061290b565b60405180910390f35b34801561023f57600080fd5b5061025a60048036038101906102559190612236565b6114e1565b005b34801561026857600080fd5b50610283600480360381019061027e9190612236565b611658565b60405161029091906129a8565b60405180910390f35b3480156102a557600080fd5b506102c060048036038101906102bb919061202f565b611902565b6040516102cd919061290b565b60405180910390f35b6102f060048036038101906102eb9190612236565b6119b8565b005b3480156102fe57600080fd5b506103196004803603810190610314919061211d565b611adb565b005b6060600160405180606001604052803373ffffffffffffffffffffffffffffffffffffffff168152602001848152602001600180549050815250908060018154018082558091505060019003906000526020600020906003020160009091909190915060008201518160000160006101000a81548173ffffffffffffffffffffffffffffffffffffffff021916908373ffffffffffffffffffffffffffffffffffffffff16021790555060208201518160010190805190602001906103e1929190611cf5565b506040820151816002015550506001805480602002602001604051908101604052809291908181526020016000905b8282101561053457838290600052602060002090600302016040518060600160405290816000820160009054906101000a900473ffffffffffffffffffffffffffffffffffffffff1673ffffffffffffffffffffffffffffffffffffffff1673ffffffffffffffffffffffffffffffffffffffff16815260200160018201805461049990612ca5565b80601f01602080910402602001604051908101604052809291908181526020018280546104c590612ca5565b80156105125780601f106104e757610100808354040283529160200191610512565b820191906000526020600020905b8154815290600101906020018083116104f557829003601f168201915b5050505050815260200160028201548152505081526020019060010190610410565b505050509050919050565b60606000805480602002602001604051908101604052809291908181526020016000905b828210156107ab57838290600052602060002090600502016040518060a00160405290816000820160009054906101000a900473ffffffffffffffffffffffffffffffffffffffff1673ffffffffffffffffffffffffffffffffffffffff1673ffffffffffffffffffffffffffffffffffffffff1681526020016001820180546105ec90612ca5565b80601f016020809104026020016040519081016040528092919081815260200182805461061890612ca5565b80156106655780601f1061063a57610100808354040283529160200191610665565b820191906000526020600020905b81548152906001019060200180831161064857829003601f168201915b5050505050815260200160028201805461067e90612ca5565b80601f01602080910402602001604051908101604052809291908181526020018280546106aa90612ca5565b80156106f75780601f106106cc576101008083540402835291602001916106f7565b820191906000526020600020905b8154815290600101906020018083116106da57829003601f168201915b505050505081526020016003820154815260200160048201805461071a90612ca5565b80601f016020809104026020016040519081016040528092919081815260200182805461074690612ca5565b80156107935780601f1061076857610100808354040283529160200191610793565b820191906000526020600020905b81548152906001019060200180831161077657829003601f168201915b50505050508152505081526020019060010190610563565b50505050905090565b600080600090505b60018054905081101561085f578273ffffffffffffffffffffffffffffffffffffffff16600182815481106107f4576107f3612e0d565b5b906000526020600020906003020160000160009054906101000a900473ffffffffffffffffffffffffffffffffffffffff1673ffffffffffffffffffffffffffffffffffffffff16141561084c576001915050610865565b808061085790612d08565b9150506107bc565b50600090505b919050565b606060006040518060a001604052803373ffffffffffffffffffffffffffffffffffffffff16815260200185815260200184815260200160008054905081526020016040518060400160405280600581526020017f536d616c6c000000000000000000000000000000000000000000000000000000815250815250908060018154018082558091505060019003906000526020600020906005020160009091909190915060008201518160000160006101000a81548173ffffffffffffffffffffffffffffffffffffffff021916908373ffffffffffffffffffffffffffffffffffffffff1602179055506020820151816001019080519060200190610971929190611cf5565b50604082015181600201908051906020019061098e929190611cf5565b506060820151816003015560808201518160040190805190602001906109b5929190611cf5565b5050506000805480602002602001604051908101604052809291908181526020016000905b82821015610c2257838290600052602060002090600502016040518060a00160405290816000820160009054906101000a900473ffffffffffffffffffffffffffffffffffffffff1673ffffffffffffffffffffffffffffffffffffffff1673ffffffffffffffffffffffffffffffffffffffff168152602001600182018054610a6390612ca5565b80601f0160208091040260200160405190810160405280929190818152602001828054610a8f90612ca5565b8015610adc5780601f10610ab157610100808354040283529160200191610adc565b820191906000526020600020905b815481529060010190602001808311610abf57829003601f168201915b50505050508152602001600282018054610af590612ca5565b80601f0160208091040260200160405190810160405280929190818152602001828054610b2190612ca5565b8015610b6e5780601f10610b4357610100808354040283529160200191610b6e565b820191906000526020600020905b815481529060010190602001808311610b5157829003601f168201915b5050505050815260200160038201548152602001600482018054610b9190612ca5565b80601f0160208091040260200160405190810160405280929190818152602001828054610bbd90612ca5565b8015610c0a5780601f10610bdf57610100808354040283529160200191610c0a565b820191906000526020600020905b815481529060010190602001808311610bed57829003601f168201915b505050505081525050815260200190600101906109da565b50505050905092915050565b60606002805480602002602001604051908101604052809291908181526020016000905b8282101561100a57838290600052602060002090600a0201604051806101400160405290816000820160009054906101000a900473ffffffffffffffffffffffffffffffffffffffff1673ffffffffffffffffffffffffffffffffffffffff1673ffffffffffffffffffffffffffffffffffffffff16815260200160018201548152602001600282018054610ce690612ca5565b80601f0160208091040260200160405190810160405280929190818152602001828054610d1290612ca5565b8015610d5f5780601f10610d3457610100808354040283529160200191610d5f565b820191906000526020600020905b815481529060010190602001808311610d4257829003601f168201915b50505050508152602001600382018054610d7890612ca5565b80601f0160208091040260200160405190810160405280929190818152602001828054610da490612ca5565b8015610df15780601f10610dc657610100808354040283529160200191610df1565b820191906000526020600020905b815481529060010190602001808311610dd457829003601f168201915b50505050508152602001600482018054610e0a90612ca5565b80601f0160208091040260200160405190810160405280929190818152602001828054610e3690612ca5565b8015610e835780601f10610e5857610100808354040283529160200191610e83565b820191906000526020600020905b815481529060010190602001808311610e6657829003601f168201915b50505050508152602001600582018054610e9c90612ca5565b80601f0160208091040260200160405190810160405280929190818152602001828054610ec890612ca5565b8015610f155780601f10610eea57610100808354040283529160200191610f15565b820191906000526020600020905b815481529060010190602001808311610ef857829003601f168201915b5050505050815260200160068201548152602001600782015481526020016008820160009054906101000a900460ff166002811115610f5757610f56612daf565b5b6002811115610f6957610f68612daf565b5b815260200160098201805480602002602001604051908101604052809291908181526020018280548015610ff257602002820191906000526020600020905b8160009054906101000a900473ffffffffffffffffffffffffffffffffffffffff1673ffffffffffffffffffffffffffffffffffffffff1681526020019060010190808311610fa8575b50505050508152505081526020019060010190610c52565b50505050905090565b61101b611d7b565b8161102581611477565b611064576040517f08c379a000000000000000000000000000000000000000000000000000000000815260040161105b90612966565b60405180910390fd5b60005b60028054905081101561146f57836002828154811061108957611088612e0d565b5b90600052602060002090600a020160010154141561145c57600281815481106110b5576110b4612e0d565b5b90600052602060002090600a0201604051806101400160405290816000820160009054906101000a900473ffffffffffffffffffffffffffffffffffffffff1673ffffffffffffffffffffffffffffffffffffffff1673ffffffffffffffffffffffffffffffffffffffff1681526020016001820154815260200160028201805461113f90612ca5565b80601f016020809104026020016040519081016040528092919081815260200182805461116b90612ca5565b80156111b85780601f1061118d576101008083540402835291602001916111b8565b820191906000526020600020905b81548152906001019060200180831161119b57829003601f168201915b505050505081526020016003820180546111d190612ca5565b80601f01602080910402602001604051908101604052809291908181526020018280546111fd90612ca5565b801561124a5780601f1061121f5761010080835404028352916020019161124a565b820191906000526020600020905b81548152906001019060200180831161122d57829003601f168201915b5050505050815260200160048201805461126390612ca5565b80601f016020809104026020016040519081016040528092919081815260200182805461128f90612ca5565b80156112dc5780601f106112b1576101008083540402835291602001916112dc565b820191906000526020600020905b8154815290600101906020018083116112bf57829003601f168201915b505050505081526020016005820180546112f590612ca5565b80601f016020809104026020016040519081016040528092919081815260200182805461132190612ca5565b801561136e5780601f106113435761010080835404028352916020019161136e565b820191906000526020600020905b81548152906001019060200180831161135157829003601f168201915b5050505050815260200160068201548152602001600782015481526020016008820160009054906101000a900460ff1660028111156113b0576113af612daf565b5b60028111156113c2576113c1612daf565b5b81526020016009820180548060200260200160405190810160405280929190818152602001828054801561144b57602002820191906000526020600020905b8160009054906101000a900473ffffffffffffffffffffffffffffffffffffffff1673ffffffffffffffffffffffffffffffffffffffff1681526020019060010190808311611401575b505050505081525050925050611471565b808061146790612d08565b915050611067565b505b50919050565b600080600090505b6002805490508110156114d65782600282815481106114a1576114a0612e0d565b5b90600052602060002090600a02016001015414156114c35760019150506114dc565b80806114ce90612d08565b91505061147f565b50600090505b919050565b806114eb81611477565b61152a576040517f08c379a000000000000000000000000000000000000000000000000000000000815260040161152190612966565b60405180910390fd5b61153333611902565b611572576040517f08c379a000000000000000000000000000000000000000000000000000000000815260040161156990612946565b60405180910390fd5b600061157d83611013565b905060008161012001519050600081518360e0015161159c9190612bb3565b905060005b825181101561161e578281815181106115bd576115bc612e0d565b5b602002602001015173ffffffffffffffffffffffffffffffffffffffff166108fc839081150290604051600060405180830381858888f1935050505015801561160a573d6000803e3d6000fd5b50808061161690612d08565b9150506115a1565b506002836101000190600281111561163957611638612daf565b5b9081600281111561164d5761164c612daf565b5b815250505050505050565b611660611df6565b60005b6000805490508110156118fb57826000828154811061168557611684612e0d565b5b90600052602060002090600502016003015414156118e857600081815481106116b1576116b0612e0d565b5b90600052602060002090600502016040518060a00160405290816000820160009054906101000a900473ffffffffffffffffffffffffffffffffffffffff1673ffffffffffffffffffffffffffffffffffffffff1673ffffffffffffffffffffffffffffffffffffffff16815260200160018201805461173090612ca5565b80601f016020809104026020016040519081016040528092919081815260200182805461175c90612ca5565b80156117a95780601f1061177e576101008083540402835291602001916117a9565b820191906000526020600020905b81548152906001019060200180831161178c57829003601f168201915b505050505081526020016002820180546117c290612ca5565b80601f01602080910402602001604051908101604052809291908181526020018280546117ee90612ca5565b801561183b5780601f106118105761010080835404028352916020019161183b565b820191906000526020600020905b81548152906001019060200180831161181e57829003601f168201915b505050505081526020016003820154815260200160048201805461185e90612ca5565b80601f016020809104026020016040519081016040528092919081815260200182805461188a90612ca5565b80156118d75780601f106118ac576101008083540402835291602001916118d7565b820191906000526020600020905b8154815290600101906020018083116118ba57829003601f168201915b5050505050815250509150506118fd565b80806118f390612d08565b915050611663565b505b919050565b600080600090505b6000805490508110156119ad578273ffffffffffffffffffffffffffffffffffffffff166000828154811061194257611941612e0d565b5b906000526020600020906005020160000160009054906101000a900473ffffffffffffffffffffffffffffffffffffffff1673ffffffffffffffffffffffffffffffffffffffff16141561199a5760019150506119b3565b80806119a590612d08565b91505061190a565b50600090505b919050565b6119c1336107b4565b611a00576040517f08c379a00000000000000000000000000000000000000000000000000000000081526004016119f790612926565b60405180910390fd5b80611a0a81611477565b611a49576040517f08c379a0000000000000000000000000000000000000000000000000000000008152600401611a4090612966565b60405180910390fd5b60005b600280549050811015611ad6578260028281548110611a6e57611a6d612e0d565b5b90600052602060002090600a0201600101541415611ac3573460028281548110611a9b57611a9a612e0d565b5b90600052602060002090600a02016007016000828254611abb9190612b5d565b925050819055505b8080611ace90612d08565b915050611a4c565b505050565b611ae433611902565b611b23576040517f08c379a0000000000000000000000000000000000000000000000000000000008152600401611b1a90612946565b60405180910390fd5b60026040518061014001604052803373ffffffffffffffffffffffffffffffffffffffff16815260200160028054905081526020018881526020018781526020018681526020018581526020018481526020016000815260200160006002811115611b9157611b90612daf565b5b81526020018381525090806001815401808255809150506001900390600052602060002090600a020160009091909190915060008201518160000160006101000a81548173ffffffffffffffffffffffffffffffffffffffff021916908373ffffffffffffffffffffffffffffffffffffffff160217905550602082015181600101556040820151816002019080519060200190611c30929190611cf5565b506060820151816003019080519060200190611c4d929190611cf5565b506080820151816004019080519060200190611c6a929190611cf5565b5060a0820151816005019080519060200190611c87929190611cf5565b5060c0820151816006015560e082015181600701556101008201518160080160006101000a81548160ff02191690836002811115611cc857611cc7612daf565b5b0217905550610120820151816009019080519060200190611cea929190611e3b565b505050505050505050565b828054611d0190612ca5565b90600052602060002090601f016020900481019282611d235760008555611d6a565b82601f10611d3c57805160ff1916838001178555611d6a565b82800160010185558215611d6a579182015b82811115611d69578251825591602001919060010190611d4e565b5b509050611d779190611ec5565b5090565b604051806101400160405280600073ffffffffffffffffffffffffffffffffffffffff1681526020016000815260200160608152602001606081526020016060815260200160608152602001600081526020016000815260200160006002811115611de957611de8612daf565b5b8152602001606081525090565b6040518060a00160405280600073ffffffffffffffffffffffffffffffffffffffff168152602001606081526020016060815260200160008152602001606081525090565b828054828255906000526020600020908101928215611eb4579160200282015b82811115611eb35782518260006101000a81548173ffffffffffffffffffffffffffffffffffffffff021916908373ffffffffffffffffffffffffffffffffffffffff16021790555091602001919060010190611e5b565b5b509050611ec19190611ec5565b5090565b5b80821115611ede576000816000905550600101611ec6565b5090565b6000611ef5611ef0846129ef565b6129ca565b90508083825260208201905082856020860282011115611f1857611f17612e70565b5b60005b85811015611f485781611f2e8882611fa9565b845260208401935060208301925050600181019050611f1b565b5050509392505050565b6000611f65611f6084612a1b565b6129ca565b905082815260208101848484011115611f8157611f80612e75565b5b611f8c848285612c63565b509392505050565b600081359050611fa381612fbc565b92915050565b600081359050611fb881612fd3565b92915050565b600082601f830112611fd357611fd2612e6b565b5b8135611fe3848260208601611ee2565b91505092915050565b600082601f83011261200157612000612e6b565b5b8135612011848260208601611f52565b91505092915050565b60008135905061202981612fea565b92915050565b60006020828403121561204557612044612e7f565b5b600061205384828501611f94565b91505092915050565b60006020828403121561207257612071612e7f565b5b600082013567ffffffffffffffff8111156120905761208f612e7a565b5b61209c84828501611fec565b91505092915050565b600080604083850312156120bc576120bb612e7f565b5b600083013567ffffffffffffffff8111156120da576120d9612e7a565b5b6120e685828601611fec565b925050602083013567ffffffffffffffff81111561210757612106612e7a565b5b61211385828601611fec565b9150509250929050565b60008060008060008060c0878903121561213a57612139612e7f565b5b600087013567ffffffffffffffff81111561215857612157612e7a565b5b61216489828a01611fec565b965050602087013567ffffffffffffffff81111561218557612184612e7a565b5b61219189828a01611fec565b955050604087013567ffffffffffffffff8111156121b2576121b1612e7a565b5b6121be89828a01611fec565b945050606087013567ffffffffffffffff8111156121df576121de612e7a565b5b6121eb89828a01611fec565b93505060806121fc89828a0161201a565b92505060a087013567ffffffffffffffff81111561221d5761221c612e7a565b5b61222989828a01611fbe565b9150509295509295509295565b60006020828403121561224c5761224b612e7f565b5b600061225a8482850161201a565b91505092915050565b600061226f83836122b7565b60208301905092915050565b60006122878383612552565b905092915050565b600061229b838361273e565b905092915050565b60006122af8383612846565b905092915050565b6122c081612bf6565b82525050565b6122cf81612be4565b82525050565b60006122e082612a8c565b6122ea8185612af7565b93506122f583612a4c565b8060005b8381101561232657815161230d8882612263565b975061231883612ac3565b9250506001810190506122f9565b5085935050505092915050565b600061233e82612a97565b6123488185612b08565b93508360208202850161235a85612a5c565b8060005b858110156123965784840389528151612377858261227b565b945061238283612ad0565b925060208a0199505060018101905061235e565b50829750879550505050505092915050565b60006123b382612aa2565b6123bd8185612b19565b9350836020820285016123cf85612a6c565b8060005b8581101561240b57848403895281516123ec858261228f565b94506123f783612add565b925060208a019950506001810190506123d3565b50829750879550505050505092915050565b600061242882612aad565b6124328185612b2a565b93508360208202850161244485612a7c565b8060005b85811015612480578484038952815161246185826122a3565b945061246c83612aea565b925060208a01995050600181019050612448565b50829750879550505050505092915050565b61249b81612c08565b82525050565b6124aa81612c51565b82525050565b60006124bb82612ab8565b6124c58185612b3b565b93506124d5818560208601612c72565b6124de81612e84565b840191505092915050565b60006124f6604483612b4c565b915061250182612e95565b606082019050919050565b6000612519604b83612b4c565b915061252482612f0a565b606082019050919050565b600061253c601f83612b4c565b915061254782612f7f565b602082019050919050565b60006101408301600083015161256b60008601826122c6565b50602083015161257e6020860182612896565b506040830151848203604086015261259682826124b0565b915050606083015184820360608601526125b082826124b0565b915050608083015184820360808601526125ca82826124b0565b91505060a083015184820360a08601526125e482826124b0565b91505060c08301516125f960c0860182612896565b5060e083015161260c60e0860182612896565b506101008301516126216101008601826124a1565b5061012083015184820361012086015261263b82826122d5565b9150508091505092915050565b60006101408301600083015161266160008601826122c6565b5060208301516126746020860182612896565b506040830151848203604086015261268c82826124b0565b915050606083015184820360608601526126a682826124b0565b915050608083015184820360808601526126c082826124b0565b91505060a083015184820360a08601526126da82826124b0565b91505060c08301516126ef60c0860182612896565b5060e083015161270260e0860182612896565b506101008301516127176101008601826124a1565b5061012083015184820361012086015261273182826122d5565b9150508091505092915050565b600060a08301600083015161275660008601826122c6565b506020830151848203602086015261276e82826124b0565b9150506040830151848203604086015261278882826124b0565b915050606083015161279d6060860182612896565b50608083015184820360808601526127b582826124b0565b9150508091505092915050565b600060a0830160008301516127da60008601826122c6565b50602083015184820360208601526127f282826124b0565b9150506040830151848203604086015261280c82826124b0565b91505060608301516128216060860182612896565b506080830151848203608086015261283982826124b0565b9150508091505092915050565b600060608301600083015161285e60008601826122c6565b506020830151848203602086015261287682826124b0565b915050604083015161288b6040860182612896565b508091505092915050565b61289f81612c47565b82525050565b600060208201905081810360008301526128bf8184612333565b905092915050565b600060208201905081810360008301526128e181846123a8565b905092915050565b60006020820190508181036000830152612903818461241d565b905092915050565b60006020820190506129206000830184612492565b92915050565b6000602082019050818103600083015261293f816124e9565b9050919050565b6000602082019050818103600083015261295f8161250c565b9050919050565b6000602082019050818103600083015261297f8161252f565b9050919050565b600060208201905081810360008301526129a08184612648565b905092915050565b600060208201905081810360008301526129c281846127c2565b905092915050565b60006129d46129e5565b90506129e08282612cd7565b919050565b6000604051905090565b600067ffffffffffffffff821115612a0a57612a09612e3c565b5b602082029050602081019050919050565b600067ffffffffffffffff821115612a3657612a35612e3c565b5b612a3f82612e84565b9050602081019050919050565b6000819050602082019050919050565b6000819050602082019050919050565b6000819050602082019050919050565b6000819050602082019050919050565b600081519050919050565b600081519050919050565b600081519050919050565b600081519050919050565b600081519050919050565b6000602082019050919050565b6000602082019050919050565b6000602082019050919050565b6000602082019050919050565b600082825260208201905092915050565b600082825260208201905092915050565b600082825260208201905092915050565b600082825260208201905092915050565b600082825260208201905092915050565b600082825260208201905092915050565b6000612b6882612c47565b9150612b7383612c47565b9250827fffffffffffffffffffffffffffffffffffffffffffffffffffffffffffffffff03821115612ba857612ba7612d51565b5b828201905092915050565b6000612bbe82612c47565b9150612bc983612c47565b925082612bd957612bd8612d80565b5b828204905092915050565b6000612bef82612c27565b9050919050565b6000612c0182612c27565b9050919050565b60008115159050919050565b6000819050612c2282612fa8565b919050565b600073ffffffffffffffffffffffffffffffffffffffff82169050919050565b6000819050919050565b6000612c5c82612c14565b9050919050565b82818337600083830152505050565b60005b83811015612c90578082015181840152602081019050612c75565b83811115612c9f576000848401525b50505050565b60006002820490506001821680612cbd57607f821691505b60208210811415612cd157612cd0612dde565b5b50919050565b612ce082612e84565b810181811067ffffffffffffffff82111715612cff57612cfe612e3c565b5b80604052505050565b6000612d1382612c47565b91507fffffffffffffffffffffffffffffffffffffffffffffffffffffffffffffffff821415612d4657612d45612d51565b5b600182019050919050565b7f4e487b7100000000000000000000000000000000000000000000000000000000600052601160045260246000fd5b7f4e487b7100000000000000000000000000000000000000000000000000000000600052601260045260246000fd5b7f4e487b7100000000000000000000000000000000000000000000000000000000600052602160045260246000fd5b7f4e487b7100000000000000000000000000000000000000000000000000000000600052602260045260246000fd5b7f4e487b7100000000000000000000000000000000000000000000000000000000600052603260045260246000fd5b7f4e487b7100000000000000000000000000000000000000000000000000000000600052604160045260246000fd5b600080fd5b600080fd5b600080fd5b600080fd5b600080fd5b6000601f19601f8301169050919050565b7f596f75206e65656420746f207265676973746572206173206120646f6e6f722060008201527f696e206f7264657220746f2070726f636565642077697468207468697320616360208201527f74696f6e00000000000000000000000000000000000000000000000000000000604082015250565b7f596f75206e65656420746f20626520612061757468656e74696361746564206360008201527f68617269747920696e206f7264657220746f2070726f6365656420776974682060208201527f7468697320616374696f6e000000000000000000000000000000000000000000604082015250565b7f54686973206973206e6f7420612076616c69642063616d706169676e20494400600082015250565b60038110612fb957612fb8612daf565b5b50565b612fc581612be4565b8114612fd057600080fd5b50565b612fdc81612bf6565b8114612fe757600080fd5b50565b612ff381612c47565b8114612ffe57600080fd5b5056fea26469706673582212204c9a53f57a308d5ac895030ccb852ddae397ead334194f2651893a26c1547ca764736f6c6343000806003354686520576f726c6420576964652046756e6420666f72204e61747572652c20616c736f206b6e6f776e2061732074686520576f726c642057696c646c6966652046756e642c206973206f6e65206f6620746865206c61726765737420636f6e736572766174696f6e206f7267616e697a6174696f6e7320696e2074686520776f726c64554e49434546206973206120556e69746564204e6174696f6e73206167656e63792064656469636174656420746f2070726f766964696e672068756d616e6974617269616e20616e6420646576656c6f706d656e74616c20617373697374616e636520746f206368696c6472656e20616e64206d6f746865727320696e20646576656c6f70696e6720636f756e74726965732e54686520416d65726963616e205265642043726f737320697320612068756d616e6974617269616e206f7267616e697a6174696f6e20746861742070726f766964657320656d657267656e637920617373697374616e63652c2064697361737465722072656c6965662c20616e6420656475636174696f6e20696e2074686520556e69746564205374617465732e",
  "linkReferences": {},
  "deployedLinkReferences": {}
}