{
  "_format": "hh-sol-artifact-1",
  "contractName": "Charity",
  "sourceName": "contracts/charity.sol",
  "abi": [
    {
      "inputs": [],
      "stateMutability": "nonpayable",
      "type": "constructor"
    },
    {
      "inputs": [
        {
          "internalType": "address",
          "name": "_functionCaller",
          "type": "address"
        }
      ],
      "name": "checkIsCharityOrg",
      "outputs": [
        {
          "internalType": "bool",
          "name": "",
          "type": "bool"
        }
      ],
      "stateMutability": "view",
      "type": "function"
    },
    {
      "inputs": [
        {
          "internalType": "address",
          "name": "_functionCaller",
          "type": "address"
        }
      ],
      "name": "checkIsDonor",
      "outputs": [
        {
          "internalType": "bool",
          "name": "",
          "type": "bool"
        }
      ],
      "stateMutability": "view",
      "type": "function"
    },
    {
      "inputs": [
        {
          "internalType": "uint256",
          "name": "_campaignId",
          "type": "uint256"
        }
      ],
      "name": "checkIsValidCampaign",
      "outputs": [
        {
          "internalType": "bool",
          "name": "",
          "type": "bool"
        }
      ],
      "stateMutability": "view",
      "type": "function"
    },
    {
      "inputs": [
        {
          "internalType": "string",
          "name": "_campaignName",
          "type": "string"
        },
        {
          "internalType": "string",
          "name": "_campaignDesc",
          "type": "string"
        },
        {
          "internalType": "string",
          "name": "_dueDate",
          "type": "string"
        },
        {
          "internalType": "string",
          "name": "_acceptedPaymentMethod",
          "type": "string"
        },
        {
          "internalType": "uint256",
          "name": "_adminFee",
          "type": "uint256"
        },
        {
          "internalType": "address payable[]",
          "name": "_beneficiaries",
          "type": "address[]"
        }
      ],
      "name": "createCampaign",
      "outputs": [],
      "stateMutability": "nonpayable",
      "type": "function"
    },
    {
      "inputs": [
        {
          "internalType": "uint256",
          "name": "_campaignId",
          "type": "uint256"
        }
      ],
      "name": "donate",
      "outputs": [],
      "stateMutability": "payable",
      "type": "function"
    },
    {
      "inputs": [],
      "name": "getAllCampaign",
      "outputs": [
        {
          "components": [
            {
              "internalType": "address",
              "name": "campaignOwner",
              "type": "address"
            },
            {
              "internalType": "uint256",
              "name": "campaignId",
              "type": "uint256"
            },
            {
              "internalType": "string",
              "name": "campaignName",
              "type": "string"
            },
            {
              "internalType": "string",
              "name": "campaignDesc",
              "type": "string"
            },
            {
              "internalType": "string",
              "name": "dueDate",
              "type": "string"
            },
            {
              "internalType": "string",
              "name": "acceptedPaymentMethod",
              "type": "string"
            },
            {
              "internalType": "uint256",
              "name": "adminFee",
              "type": "uint256"
            },
            {
              "internalType": "uint256",
              "name": "raisedAmount",
              "type": "uint256"
            },
            {
              "internalType": "enum Charity.CampaignState",
              "name": "campaignState",
              "type": "uint8"
            },
            {
              "internalType": "address payable[]",
              "name": "beneficiaries",
              "type": "address[]"
            }
          ],
          "internalType": "struct Charity.Campaign[]",
          "name": "",
          "type": "tuple[]"
        }
      ],
      "stateMutability": "view",
      "type": "function"
    },
    {
      "inputs": [
        {
          "internalType": "uint256",
          "name": "_campaignId",
          "type": "uint256"
        }
      ],
      "name": "getCampaign",
      "outputs": [
        {
          "components": [
            {
              "internalType": "address",
              "name": "campaignOwner",
              "type": "address"
            },
            {
              "internalType": "uint256",
              "name": "campaignId",
              "type": "uint256"
            },
            {
              "internalType": "string",
              "name": "campaignName",
              "type": "string"
            },
            {
              "internalType": "string",
              "name": "campaignDesc",
              "type": "string"
            },
            {
              "internalType": "string",
              "name": "dueDate",
              "type": "string"
            },
            {
              "internalType": "string",
              "name": "acceptedPaymentMethod",
              "type": "string"
            },
            {
              "internalType": "uint256",
              "name": "adminFee",
              "type": "uint256"
            },
            {
              "internalType": "uint256",
              "name": "raisedAmount",
              "type": "uint256"
            },
            {
              "internalType": "enum Charity.CampaignState",
              "name": "campaignState",
              "type": "uint8"
            },
            {
              "internalType": "address payable[]",
              "name": "beneficiaries",
              "type": "address[]"
            }
          ],
          "internalType": "struct Charity.Campaign",
          "name": "retrievedCampaign",
          "type": "tuple"
        }
      ],
      "stateMutability": "view",
      "type": "function"
    },
    {
      "inputs": [
        {
          "internalType": "string",
          "name": "_charityName",
          "type": "string"
        },
        {
          "internalType": "string",
          "name": "_charityDesc",
          "type": "string"
        }
      ],
      "name": "registerAsCharityOrg",
      "outputs": [],
      "stateMutability": "nonpayable",
      "type": "function"
    },
    {
      "inputs": [
        {
          "internalType": "string",
          "name": "_donorName",
          "type": "string"
        }
      ],
      "name": "registerAsDonor",
      "outputs": [],
      "stateMutability": "nonpayable",
      "type": "function"
    },
    {
      "inputs": [
        {
          "internalType": "uint256",
          "name": "_campaignId",
          "type": "uint256"
        }
      ],
      "name": "releaseFund",
      "outputs": [],
      "stateMutability": "nonpayable",
      "type": "function"
    }
  ],
  "bytecode": "0x60806040523480156200001157600080fd5b5060006040518060a00160405280600073ffffffffffffffffffffffffffffffffffffffff1681526020016040518060400160405280600881526020017f52656463726f737300000000000000000000000000000000000000000000000081525081526020016040518060c00160405280608e815260200162002ab8608e91398152602001600181526020016040518060400160405280600581526020017f4d616a6f72000000000000000000000000000000000000000000000000000000815250815250908060018154018082558091505060019003906000526020600020906005020160009091909190915060008201518160000160006101000a81548173ffffffffffffffffffffffffffffffffffffffff021916908373ffffffffffffffffffffffffffffffffffffffff160217905550602082015181600101908051906020019062000164929190620004ef565b50604082015181600201908051906020019062000183929190620004ef565b50606082015181600301556080820151816004019080519060200190620001ac929190620004ef565b50505060006040518060a00160405280600073ffffffffffffffffffffffffffffffffffffffff1681526020016040518060400160405280600681526020017f554e49434546000000000000000000000000000000000000000000000000000081525081526020016040518060c001604052806093815260200162002a25609391398152602001600281526020016040518060400160405280600581526020017f4d616a6f72000000000000000000000000000000000000000000000000000000815250815250908060018154018082558091505060019003906000526020600020906005020160009091909190915060008201518160000160006101000a81548173ffffffffffffffffffffffffffffffffffffffff021916908373ffffffffffffffffffffffffffffffffffffffff160217905550602082015181600101908051906020019062000301929190620004ef565b50604082015181600201908051906020019062000320929190620004ef565b5060608201518160030155608082015181600401908051906020019062000349929190620004ef565b50505060006040518060a00160405280600073ffffffffffffffffffffffffffffffffffffffff1681526020016040518060400160405280600381526020017f575746000000000000000000000000000000000000000000000000000000000081525081526020016040518060c0016040528060848152602001620029a1608491398152602001600381526020016040518060400160405280600581526020017f4d616a6f72000000000000000000000000000000000000000000000000000000815250815250908060018154018082558091505060019003906000526020600020906005020160009091909190915060008201518160000160006101000a81548173ffffffffffffffffffffffffffffffffffffffff021916908373ffffffffffffffffffffffffffffffffffffffff16021790555060208201518160010190805190602001906200049e929190620004ef565b506040820151816002019080519060200190620004bd929190620004ef565b50606082015181600301556080820151816004019080519060200190620004e6929190620004ef565b50505062000604565b828054620004fd906200059f565b90600052602060002090601f0160209004810192826200052157600085556200056d565b82601f106200053c57805160ff19168380011785556200056d565b828001600101855582156200056d579182015b828111156200056c5782518255916020019190600101906200054f565b5b5090506200057c919062000580565b5090565b5b808211156200059b57600081600090555060010162000581565b5090565b60006002820490506001821680620005b857607f821691505b60208210811415620005cf57620005ce620005d5565b5b50919050565b7f4e487b7100000000000000000000000000000000000000000000000000000000600052602260045260246000fd5b61238d80620006146000396000f3fe6080604052600436106100915760003560e01c806395426f391161005957806395426f391461018d57806397d22477146101ca578063ec9c6a0e146101f3578063f14faf6f14610230578063f1841a7c1461024c57610091565b80631a71eae11461009657806335951cba146100bf5780633b574189146100fc5780634ca079f2146101255780635598f8cc14610150575b600080fd5b3480156100a257600080fd5b506100bd60048036038101906100b8919061169a565b610275565b005b3480156100cb57600080fd5b506100e660048036038101906100e1919061166d565b610349565b6040516100f39190611c9b565b60405180910390f35b34801561010857600080fd5b50610123600480360381019061011e91906116e3565b6103ff565b005b34801561013157600080fd5b5061013a61054f565b6040516101479190611c79565b60405180910390f35b34801561015c57600080fd5b5061017760048036038101906101729190611874565b610934565b6040516101849190611d16565b60405180910390f35b34801561019957600080fd5b506101b460048036038101906101af9190611874565b610d98565b6040516101c19190611c9b565b60405180910390f35b3480156101d657600080fd5b506101f160048036038101906101ec9190611874565b610e02565b005b3480156101ff57600080fd5b5061021a6004803603810190610215919061166d565b610f85565b6040516102279190611c9b565b60405180910390f35b61024a60048036038101906102459190611874565b61103b565b005b34801561025857600080fd5b50610273600480360381019061026e919061175b565b61115e565b005b600160405180606001604052803373ffffffffffffffffffffffffffffffffffffffff168152602001838152602001600180549050815250908060018154018082558091505060019003906000526020600020906003020160009091909190915060008201518160000160006101000a81548173ffffffffffffffffffffffffffffffffffffffff021916908373ffffffffffffffffffffffffffffffffffffffff1602179055506020820151816001019080519060200190610339929190611378565b5060408201518160020155505050565b600080600090505b6001805490508110156103f4578273ffffffffffffffffffffffffffffffffffffffff166001828154811061038957610388612163565b5b906000526020600020906003020160000160009054906101000a900473ffffffffffffffffffffffffffffffffffffffff1673ffffffffffffffffffffffffffffffffffffffff1614156103e15760019150506103fa565b80806103ec9061205e565b915050610351565b50600090505b919050565b60006040518060a001604052803373ffffffffffffffffffffffffffffffffffffffff16815260200184815260200183815260200160008054905081526020016040518060400160405280600581526020017f536d616c6c000000000000000000000000000000000000000000000000000000815250815250908060018154018082558091505060019003906000526020600020906005020160009091909190915060008201518160000160006101000a81548173ffffffffffffffffffffffffffffffffffffffff021916908373ffffffffffffffffffffffffffffffffffffffff1602179055506020820151816001019080519060200190610504929190611378565b506040820151816002019080519060200190610521929190611378565b50606082015181600301556080820151816004019080519060200190610548929190611378565b5050505050565b60606002805480602002602001604051908101604052809291908181526020016000905b8282101561092b57838290600052602060002090600a0201604051806101400160405290816000820160009054906101000a900473ffffffffffffffffffffffffffffffffffffffff1673ffffffffffffffffffffffffffffffffffffffff1673ffffffffffffffffffffffffffffffffffffffff1681526020016001820154815260200160028201805461060790611ffb565b80601f016020809104026020016040519081016040528092919081815260200182805461063390611ffb565b80156106805780601f1061065557610100808354040283529160200191610680565b820191906000526020600020905b81548152906001019060200180831161066357829003601f168201915b5050505050815260200160038201805461069990611ffb565b80601f01602080910402602001604051908101604052809291908181526020018280546106c590611ffb565b80156107125780601f106106e757610100808354040283529160200191610712565b820191906000526020600020905b8154815290600101906020018083116106f557829003601f168201915b5050505050815260200160048201805461072b90611ffb565b80601f016020809104026020016040519081016040528092919081815260200182805461075790611ffb565b80156107a45780601f10610779576101008083540402835291602001916107a4565b820191906000526020600020905b81548152906001019060200180831161078757829003601f168201915b505050505081526020016005820180546107bd90611ffb565b80601f01602080910402602001604051908101604052809291908181526020018280546107e990611ffb565b80156108365780601f1061080b57610100808354040283529160200191610836565b820191906000526020600020905b81548152906001019060200180831161081957829003601f168201915b5050505050815260200160068201548152602001600782015481526020016008820160009054906101000a900460ff16600281111561087857610877612105565b5b600281111561088a57610889612105565b5b81526020016009820180548060200260200160405190810160405280929190818152602001828054801561091357602002820191906000526020600020905b8160009054906101000a900473ffffffffffffffffffffffffffffffffffffffff1673ffffffffffffffffffffffffffffffffffffffff16815260200190600101908083116108c9575b50505050508152505081526020019060010190610573565b50505050905090565b61093c6113fe565b8161094681610d98565b610985576040517f08c379a000000000000000000000000000000000000000000000000000000000815260040161097c90611cf6565b60405180910390fd5b60005b600280549050811015610d905783600282815481106109aa576109a9612163565b5b90600052602060002090600a0201600101541415610d7d57600281815481106109d6576109d5612163565b5b90600052602060002090600a0201604051806101400160405290816000820160009054906101000a900473ffffffffffffffffffffffffffffffffffffffff1673ffffffffffffffffffffffffffffffffffffffff1673ffffffffffffffffffffffffffffffffffffffff16815260200160018201548152602001600282018054610a6090611ffb565b80601f0160208091040260200160405190810160405280929190818152602001828054610a8c90611ffb565b8015610ad95780601f10610aae57610100808354040283529160200191610ad9565b820191906000526020600020905b815481529060010190602001808311610abc57829003601f168201915b50505050508152602001600382018054610af290611ffb565b80601f0160208091040260200160405190810160405280929190818152602001828054610b1e90611ffb565b8015610b6b5780601f10610b4057610100808354040283529160200191610b6b565b820191906000526020600020905b815481529060010190602001808311610b4e57829003601f168201915b50505050508152602001600482018054610b8490611ffb565b80601f0160208091040260200160405190810160405280929190818152602001828054610bb090611ffb565b8015610bfd5780601f10610bd257610100808354040283529160200191610bfd565b820191906000526020600020905b815481529060010190602001808311610be057829003601f168201915b50505050508152602001600582018054610c1690611ffb565b80601f0160208091040260200160405190810160405280929190818152602001828054610c4290611ffb565b8015610c8f5780601f10610c6457610100808354040283529160200191610c8f565b820191906000526020600020905b815481529060010190602001808311610c7257829003601f168201915b5050505050815260200160068201548152602001600782015481526020016008820160009054906101000a900460ff166002811115610cd157610cd0612105565b5b6002811115610ce357610ce2612105565b5b815260200160098201805480602002602001604051908101604052809291908181526020018280548015610d6c57602002820191906000526020600020905b8160009054906101000a900473ffffffffffffffffffffffffffffffffffffffff1673ffffffffffffffffffffffffffffffffffffffff1681526020019060010190808311610d22575b505050505081525050925050610d92565b8080610d889061205e565b915050610988565b505b50919050565b600080600090505b600280549050811015610df7578260028281548110610dc257610dc1612163565b5b90600052602060002090600a0201600101541415610de4576001915050610dfd565b8080610def9061205e565b915050610da0565b50600090505b919050565b80610e0c81610d98565b610e4b576040517f08c379a0000000000000000000000000000000000000000000000000000000008152600401610e4290611cf6565b60405180910390fd5b610e5433610f85565b610e93576040517f08c379a0000000000000000000000000000000000000000000000000000000008152600401610e8a90611cd6565b60405180910390fd5b6000610e9e83610934565b90506000816101200151905060008260e0015182516001610ebf9190611eaf565b610ec99190611ee0565b905060005b8251811015610f4b57828181518110610eea57610ee9612163565b5b602002602001015173ffffffffffffffffffffffffffffffffffffffff166108fc839081150290604051600060405180830381858888f19350505050158015610f37573d6000803e3d6000fd5b508080610f439061205e565b915050610ece565b5060028361010001906002811115610f6657610f65612105565b5b90816002811115610f7a57610f79612105565b5b815250505050505050565b600080600090505b600080549050811015611030578273ffffffffffffffffffffffffffffffffffffffff1660008281548110610fc557610fc4612163565b5b906000526020600020906005020160000160009054906101000a900473ffffffffffffffffffffffffffffffffffffffff1673ffffffffffffffffffffffffffffffffffffffff16141561101d576001915050611036565b80806110289061205e565b915050610f8d565b50600090505b919050565b61104433610349565b611083576040517f08c379a000000000000000000000000000000000000000000000000000000000815260040161107a90611cb6565b60405180910390fd5b8061108d81610d98565b6110cc576040517f08c379a00000000000000000000000000000000000000000000000000000000081526004016110c390611cf6565b60405180910390fd5b60005b6002805490508110156111595782600282815481106110f1576110f0612163565b5b90600052602060002090600a020160010154141561114657346002828154811061111e5761111d612163565b5b90600052602060002090600a0201600701600082825461113e9190611e59565b925050819055505b80806111519061205e565b9150506110cf565b505050565b61116733610f85565b6111a6576040517f08c379a000000000000000000000000000000000000000000000000000000000815260040161119d90611cd6565b60405180910390fd5b60026040518061014001604052803373ffffffffffffffffffffffffffffffffffffffff1681526020016002805490508152602001888152602001878152602001868152602001858152602001848152602001600081526020016000600281111561121457611213612105565b5b81526020018381525090806001815401808255809150506001900390600052602060002090600a020160009091909190915060008201518160000160006101000a81548173ffffffffffffffffffffffffffffffffffffffff021916908373ffffffffffffffffffffffffffffffffffffffff1602179055506020820151816001015560408201518160020190805190602001906112b3929190611378565b5060608201518160030190805190602001906112d0929190611378565b5060808201518160040190805190602001906112ed929190611378565b5060a082015181600501908051906020019061130a929190611378565b5060c0820151816006015560e082015181600701556101008201518160080160006101000a81548160ff0219169083600281111561134b5761134a612105565b5b021790555061012082015181600901908051906020019061136d929190611479565b505050505050505050565b82805461138490611ffb565b90600052602060002090601f0160209004810192826113a657600085556113ed565b82601f106113bf57805160ff19168380011785556113ed565b828001600101855582156113ed579182015b828111156113ec5782518255916020019190600101906113d1565b5b5090506113fa9190611503565b5090565b604051806101400160405280600073ffffffffffffffffffffffffffffffffffffffff168152602001600081526020016060815260200160608152602001606081526020016060815260200160008152602001600081526020016000600281111561146c5761146b612105565b5b8152602001606081525090565b8280548282559060005260206000209081019282156114f2579160200282015b828111156114f15782518260006101000a81548173ffffffffffffffffffffffffffffffffffffffff021916908373ffffffffffffffffffffffffffffffffffffffff16021790555091602001919060010190611499565b5b5090506114ff9190611503565b5090565b5b8082111561151c576000816000905550600101611504565b5090565b600061153361152e84611d5d565b611d38565b90508083825260208201905082856020860282011115611556576115556121c6565b5b60005b85811015611586578161156c88826115e7565b845260208401935060208301925050600181019050611559565b5050509392505050565b60006115a361159e84611d89565b611d38565b9050828152602081018484840111156115bf576115be6121cb565b5b6115ca848285611fb9565b509392505050565b6000813590506115e181612312565b92915050565b6000813590506115f681612329565b92915050565b600082601f830112611611576116106121c1565b5b8135611621848260208601611520565b91505092915050565b600082601f83011261163f5761163e6121c1565b5b813561164f848260208601611590565b91505092915050565b60008135905061166781612340565b92915050565b600060208284031215611683576116826121d5565b5b6000611691848285016115d2565b91505092915050565b6000602082840312156116b0576116af6121d5565b5b600082013567ffffffffffffffff8111156116ce576116cd6121d0565b5b6116da8482850161162a565b91505092915050565b600080604083850312156116fa576116f96121d5565b5b600083013567ffffffffffffffff811115611718576117176121d0565b5b6117248582860161162a565b925050602083013567ffffffffffffffff811115611745576117446121d0565b5b6117518582860161162a565b9150509250929050565b60008060008060008060c08789031215611778576117776121d5565b5b600087013567ffffffffffffffff811115611796576117956121d0565b5b6117a289828a0161162a565b965050602087013567ffffffffffffffff8111156117c3576117c26121d0565b5b6117cf89828a0161162a565b955050604087013567ffffffffffffffff8111156117f0576117ef6121d0565b5b6117fc89828a0161162a565b945050606087013567ffffffffffffffff81111561181d5761181c6121d0565b5b61182989828a0161162a565b935050608061183a89828a01611658565b92505060a087013567ffffffffffffffff81111561185b5761185a6121d0565b5b61186789828a016115fc565b9150509295509295509295565b60006020828403121561188a576118896121d5565b5b600061189884828501611658565b91505092915050565b60006118ad83836118cd565b60208301905092915050565b60006118c58383611a7e565b905092915050565b6118d681611f4c565b82525050565b6118e581611f3a565b82525050565b60006118f682611dda565b6119008185611e15565b935061190b83611dba565b8060005b8381101561193c57815161192388826118a1565b975061192e83611dfb565b92505060018101905061190f565b5085935050505092915050565b600061195482611de5565b61195e8185611e26565b93508360208202850161197085611dca565b8060005b858110156119ac578484038952815161198d85826118b9565b945061199883611e08565b925060208a01995050600181019050611974565b50829750879550505050505092915050565b6119c781611f5e565b82525050565b6119d681611fa7565b82525050565b60006119e782611df0565b6119f18185611e37565b9350611a01818560208601611fc8565b611a0a816121da565b840191505092915050565b6000611a22604483611e48565b9150611a2d826121eb565b606082019050919050565b6000611a45604b83611e48565b9150611a5082612260565b606082019050919050565b6000611a68601f83611e48565b9150611a73826122d5565b602082019050919050565b600061014083016000830151611a9760008601826118dc565b506020830151611aaa6020860182611c6a565b5060408301518482036040860152611ac282826119dc565b91505060608301518482036060860152611adc82826119dc565b91505060808301518482036080860152611af682826119dc565b91505060a083015184820360a0860152611b1082826119dc565b91505060c0830151611b2560c0860182611c6a565b5060e0830151611b3860e0860182611c6a565b50610100830151611b4d6101008601826119cd565b50610120830151848203610120860152611b6782826118eb565b9150508091505092915050565b600061014083016000830151611b8d60008601826118dc565b506020830151611ba06020860182611c6a565b5060408301518482036040860152611bb882826119dc565b91505060608301518482036060860152611bd282826119dc565b91505060808301518482036080860152611bec82826119dc565b91505060a083015184820360a0860152611c0682826119dc565b91505060c0830151611c1b60c0860182611c6a565b5060e0830151611c2e60e0860182611c6a565b50610100830151611c436101008601826119cd565b50610120830151848203610120860152611c5d82826118eb565b9150508091505092915050565b611c7381611f9d565b82525050565b60006020820190508181036000830152611c938184611949565b905092915050565b6000602082019050611cb060008301846119be565b92915050565b60006020820190508181036000830152611ccf81611a15565b9050919050565b60006020820190508181036000830152611cef81611a38565b9050919050565b60006020820190508181036000830152611d0f81611a5b565b9050919050565b60006020820190508181036000830152611d308184611b74565b905092915050565b6000611d42611d53565b9050611d4e828261202d565b919050565b6000604051905090565b600067ffffffffffffffff821115611d7857611d77612192565b5b602082029050602081019050919050565b600067ffffffffffffffff821115611da457611da3612192565b5b611dad826121da565b9050602081019050919050565b6000819050602082019050919050565b6000819050602082019050919050565b600081519050919050565b600081519050919050565b600081519050919050565b6000602082019050919050565b6000602082019050919050565b600082825260208201905092915050565b600082825260208201905092915050565b600082825260208201905092915050565b600082825260208201905092915050565b6000611e6482611f9d565b9150611e6f83611f9d565b9250827fffffffffffffffffffffffffffffffffffffffffffffffffffffffffffffffff03821115611ea457611ea36120a7565b5b828201905092915050565b6000611eba82611f9d565b9150611ec583611f9d565b925082611ed557611ed46120d6565b5b828204905092915050565b6000611eeb82611f9d565b9150611ef683611f9d565b9250817fffffffffffffffffffffffffffffffffffffffffffffffffffffffffffffffff0483118215151615611f2f57611f2e6120a7565b5b828202905092915050565b6000611f4582611f7d565b9050919050565b6000611f5782611f7d565b9050919050565b60008115159050919050565b6000819050611f78826122fe565b919050565b600073ffffffffffffffffffffffffffffffffffffffff82169050919050565b6000819050919050565b6000611fb282611f6a565b9050919050565b82818337600083830152505050565b60005b83811015611fe6578082015181840152602081019050611fcb565b83811115611ff5576000848401525b50505050565b6000600282049050600182168061201357607f821691505b6020821081141561202757612026612134565b5b50919050565b612036826121da565b810181811067ffffffffffffffff8211171561205557612054612192565b5b80604052505050565b600061206982611f9d565b91507fffffffffffffffffffffffffffffffffffffffffffffffffffffffffffffffff82141561209c5761209b6120a7565b5b600182019050919050565b7f4e487b7100000000000000000000000000000000000000000000000000000000600052601160045260246000fd5b7f4e487b7100000000000000000000000000000000000000000000000000000000600052601260045260246000fd5b7f4e487b7100000000000000000000000000000000000000000000000000000000600052602160045260246000fd5b7f4e487b7100000000000000000000000000000000000000000000000000000000600052602260045260246000fd5b7f4e487b7100000000000000000000000000000000000000000000000000000000600052603260045260246000fd5b7f4e487b7100000000000000000000000000000000000000000000000000000000600052604160045260246000fd5b600080fd5b600080fd5b600080fd5b600080fd5b600080fd5b6000601f19601f8301169050919050565b7f596f75206e65656420746f207265676973746572206173206120646f6e6f722060008201527f696e206f7264657220746f2070726f636565642077697468207468697320616360208201527f74696f6e00000000000000000000000000000000000000000000000000000000604082015250565b7f596f75206e65656420746f20626520612061757468656e74696361746564206360008201527f68617269747920696e206f7264657220746f2070726f6365656420776974682060208201527f7468697320616374696f6e000000000000000000000000000000000000000000604082015250565b7f54686973206973206e6f7420612076616c69642063616d706169676e20494400600082015250565b6003811061230f5761230e612105565b5b50565b61231b81611f3a565b811461232657600080fd5b50565b61233281611f4c565b811461233d57600080fd5b50565b61234981611f9d565b811461235457600080fd5b5056fea26469706673582212200590639b75a38f5d2d44c771390b750491753c578d70fe6c3d4425156b14c6dd64736f6c6343000806003354686520576f726c6420576964652046756e6420666f72204e61747572652c20616c736f206b6e6f776e2061732074686520576f726c642057696c646c6966652046756e642c206973206f6e65206f6620746865206c61726765737420636f6e736572766174696f6e206f7267616e697a6174696f6e7320696e2074686520776f726c64554e49434546206973206120556e69746564204e6174696f6e73206167656e63792064656469636174656420746f2070726f766964696e672068756d616e6974617269616e20616e6420646576656c6f706d656e74616c20617373697374616e636520746f206368696c6472656e20616e64206d6f746865727320696e20646576656c6f70696e6720636f756e74726965732e54686520416d65726963616e205265642043726f737320697320612068756d616e6974617269616e206f7267616e697a6174696f6e20746861742070726f766964657320656d657267656e637920617373697374616e63652c2064697361737465722072656c6965662c20616e6420656475636174696f6e20696e2074686520556e69746564205374617465732e",
  "linkReferences": {},
  "deployedLinkReferences": {}
}