{
  "_format": "hh-sol-artifact-1",
  "contractName": "Charity",
  "sourceName": "contracts/charity.sol",
  "abi": [
    {
      "inputs": [],
      "stateMutability": "nonpayable",
      "type": "constructor"
    },
    {
      "inputs": [
        {
          "internalType": "address",
          "name": "_functionCaller",
          "type": "address"
        }
      ],
      "name": "checkIsCharityOrg",
      "outputs": [
        {
          "internalType": "bool",
          "name": "",
          "type": "bool"
        }
      ],
      "stateMutability": "view",
      "type": "function"
    },
    {
      "inputs": [
        {
          "internalType": "address",
          "name": "_functionCaller",
          "type": "address"
        }
      ],
      "name": "checkIsDonor",
      "outputs": [
        {
          "internalType": "bool",
          "name": "",
          "type": "bool"
        }
      ],
      "stateMutability": "view",
      "type": "function"
    },
    {
      "inputs": [
        {
          "internalType": "uint256",
          "name": "_campaignId",
          "type": "uint256"
        }
      ],
      "name": "checkIsValidCampaign",
      "outputs": [
        {
          "internalType": "bool",
          "name": "",
          "type": "bool"
        }
      ],
      "stateMutability": "view",
      "type": "function"
    },
    {
      "inputs": [
        {
          "internalType": "string",
          "name": "_campaignName",
          "type": "string"
        },
        {
          "internalType": "string",
          "name": "_campaignDesc",
          "type": "string"
        },
        {
          "internalType": "string",
          "name": "_dueDate",
          "type": "string"
        },
        {
          "internalType": "string",
          "name": "_acceptedPaymentMethod",
          "type": "string"
        },
        {
          "internalType": "uint256",
          "name": "_adminFee",
          "type": "uint256"
        },
        {
          "internalType": "address payable[]",
          "name": "_beneficiaries",
          "type": "address[]"
        }
      ],
      "name": "createCampaign",
      "outputs": [],
      "stateMutability": "nonpayable",
      "type": "function"
    },
    {
      "inputs": [
        {
          "internalType": "uint256",
          "name": "_campaignId",
          "type": "uint256"
        }
      ],
      "name": "donate",
      "outputs": [],
      "stateMutability": "payable",
      "type": "function"
    },
    {
      "inputs": [],
      "name": "getAllCampaign",
      "outputs": [
        {
          "components": [
            {
              "internalType": "address",
              "name": "campaignOwner",
              "type": "address"
            },
            {
              "internalType": "uint256",
              "name": "campaignId",
              "type": "uint256"
            },
            {
              "internalType": "string",
              "name": "campaignName",
              "type": "string"
            },
            {
              "internalType": "string",
              "name": "campaignDesc",
              "type": "string"
            },
            {
              "internalType": "string",
              "name": "dueDate",
              "type": "string"
            },
            {
              "internalType": "string",
              "name": "acceptedPaymentMethod",
              "type": "string"
            },
            {
              "internalType": "uint256",
              "name": "adminFee",
              "type": "uint256"
            },
            {
              "internalType": "uint256",
              "name": "raisedAmount",
              "type": "uint256"
            },
            {
              "internalType": "enum Charity.CampaignState",
              "name": "campaignState",
              "type": "uint8"
            },
            {
              "internalType": "address payable[]",
              "name": "beneficiaries",
              "type": "address[]"
            }
          ],
          "internalType": "struct Charity.Campaign[]",
          "name": "",
          "type": "tuple[]"
        }
      ],
      "stateMutability": "view",
      "type": "function"
    },
    {
      "inputs": [],
      "name": "getAllCharityOrg",
      "outputs": [
        {
          "components": [
            {
              "internalType": "address",
              "name": "charityAddress",
              "type": "address"
            },
            {
              "internalType": "string",
              "name": "charityName",
              "type": "string"
            },
            {
              "internalType": "string",
              "name": "charityDesc",
              "type": "string"
            },
            {
              "internalType": "uint256",
              "name": "charityId",
              "type": "uint256"
            },
            {
              "internalType": "string",
              "name": "reputationLevel",
              "type": "string"
            }
          ],
          "internalType": "struct Charity.CharityOrg[]",
          "name": "",
          "type": "tuple[]"
        }
      ],
      "stateMutability": "view",
      "type": "function"
    },
    {
      "inputs": [
        {
          "internalType": "uint256",
          "name": "_campaignId",
          "type": "uint256"
        }
      ],
      "name": "getCampaign",
      "outputs": [
        {
          "components": [
            {
              "internalType": "address",
              "name": "campaignOwner",
              "type": "address"
            },
            {
              "internalType": "uint256",
              "name": "campaignId",
              "type": "uint256"
            },
            {
              "internalType": "string",
              "name": "campaignName",
              "type": "string"
            },
            {
              "internalType": "string",
              "name": "campaignDesc",
              "type": "string"
            },
            {
              "internalType": "string",
              "name": "dueDate",
              "type": "string"
            },
            {
              "internalType": "string",
              "name": "acceptedPaymentMethod",
              "type": "string"
            },
            {
              "internalType": "uint256",
              "name": "adminFee",
              "type": "uint256"
            },
            {
              "internalType": "uint256",
              "name": "raisedAmount",
              "type": "uint256"
            },
            {
              "internalType": "enum Charity.CampaignState",
              "name": "campaignState",
              "type": "uint8"
            },
            {
              "internalType": "address payable[]",
              "name": "beneficiaries",
              "type": "address[]"
            }
          ],
          "internalType": "struct Charity.Campaign",
          "name": "retrievedCampaign",
          "type": "tuple"
        }
      ],
      "stateMutability": "view",
      "type": "function"
    },
    {
      "inputs": [
        {
          "internalType": "uint256",
          "name": "_charityId",
          "type": "uint256"
        }
      ],
      "name": "getCharityOrg",
      "outputs": [
        {
          "components": [
            {
              "internalType": "address",
              "name": "charityAddress",
              "type": "address"
            },
            {
              "internalType": "string",
              "name": "charityName",
              "type": "string"
            },
            {
              "internalType": "string",
              "name": "charityDesc",
              "type": "string"
            },
            {
              "internalType": "uint256",
              "name": "charityId",
              "type": "uint256"
            },
            {
              "internalType": "string",
              "name": "reputationLevel",
              "type": "string"
            }
          ],
          "internalType": "struct Charity.CharityOrg",
          "name": "targetCharityOrg",
          "type": "tuple"
        }
      ],
      "stateMutability": "view",
      "type": "function"
    },
    {
      "inputs": [
        {
          "internalType": "string",
          "name": "_charityName",
          "type": "string"
        },
        {
          "internalType": "string",
          "name": "_charityDesc",
          "type": "string"
        }
      ],
      "name": "registerAsCharityOrg",
      "outputs": [
        {
          "components": [
            {
              "internalType": "address",
              "name": "charityAddress",
              "type": "address"
            },
            {
              "internalType": "string",
              "name": "charityName",
              "type": "string"
            },
            {
              "internalType": "string",
              "name": "charityDesc",
              "type": "string"
            },
            {
              "internalType": "uint256",
              "name": "charityId",
              "type": "uint256"
            },
            {
              "internalType": "string",
              "name": "reputationLevel",
              "type": "string"
            }
          ],
          "internalType": "struct Charity.CharityOrg[]",
          "name": "",
          "type": "tuple[]"
        }
      ],
      "stateMutability": "nonpayable",
      "type": "function"
    },
    {
      "inputs": [
        {
          "internalType": "string",
          "name": "_donorName",
          "type": "string"
        }
      ],
      "name": "registerAsDonor",
      "outputs": [
        {
          "components": [
            {
              "internalType": "address",
              "name": "donorAddress",
              "type": "address"
            },
            {
              "internalType": "string",
              "name": "donorName",
              "type": "string"
            },
            {
              "internalType": "uint256",
              "name": "donorId",
              "type": "uint256"
            }
          ],
          "internalType": "struct Charity.Donor[]",
          "name": "",
          "type": "tuple[]"
        }
      ],
      "stateMutability": "nonpayable",
      "type": "function"
    },
    {
      "inputs": [
        {
          "internalType": "uint256",
          "name": "_campaignId",
          "type": "uint256"
        }
      ],
      "name": "releaseFund",
      "outputs": [],
      "stateMutability": "nonpayable",
      "type": "function"
    }
  ],
  "bytecode": "0x60806040523480156200001157600080fd5b5060006040518060a00160405280600073ffffffffffffffffffffffffffffffffffffffff1681526020016040518060400160405280600881526020017f52656463726f737300000000000000000000000000000000000000000000000081525081526020016040518060c00160405280608e8152602001620037c8608e91398152602001600181526020016040518060400160405280600581526020017f4d616a6f72000000000000000000000000000000000000000000000000000000815250815250908060018154018082558091505060019003906000526020600020906005020160009091909190915060008201518160000160006101000a81548173ffffffffffffffffffffffffffffffffffffffff021916908373ffffffffffffffffffffffffffffffffffffffff160217905550602082015181600101908051906020019062000164929190620004ef565b50604082015181600201908051906020019062000183929190620004ef565b50606082015181600301556080820151816004019080519060200190620001ac929190620004ef565b50505060006040518060a00160405280600073ffffffffffffffffffffffffffffffffffffffff1681526020016040518060400160405280600681526020017f554e49434546000000000000000000000000000000000000000000000000000081525081526020016040518060c001604052806093815260200162003735609391398152602001600281526020016040518060400160405280600581526020017f4d616a6f72000000000000000000000000000000000000000000000000000000815250815250908060018154018082558091505060019003906000526020600020906005020160009091909190915060008201518160000160006101000a81548173ffffffffffffffffffffffffffffffffffffffff021916908373ffffffffffffffffffffffffffffffffffffffff160217905550602082015181600101908051906020019062000301929190620004ef565b50604082015181600201908051906020019062000320929190620004ef565b5060608201518160030155608082015181600401908051906020019062000349929190620004ef565b50505060006040518060a00160405280600073ffffffffffffffffffffffffffffffffffffffff1681526020016040518060400160405280600381526020017f575746000000000000000000000000000000000000000000000000000000000081525081526020016040518060c0016040528060848152602001620036b1608491398152602001600381526020016040518060400160405280600581526020017f4d616a6f72000000000000000000000000000000000000000000000000000000815250815250908060018154018082558091505060019003906000526020600020906005020160009091909190915060008201518160000160006101000a81548173ffffffffffffffffffffffffffffffffffffffff021916908373ffffffffffffffffffffffffffffffffffffffff16021790555060208201518160010190805190602001906200049e929190620004ef565b506040820151816002019080519060200190620004bd929190620004ef565b50606082015181600301556080820151816004019080519060200190620004e6929190620004ef565b50505062000604565b828054620004fd906200059f565b90600052602060002090601f0160209004810192826200052157600085556200056d565b82601f106200053c57805160ff19168380011785556200056d565b828001600101855582156200056d579182015b828111156200056c5782518255916020019190600101906200054f565b5b5090506200057c919062000580565b5090565b5b808211156200059b57600081600090555060010162000581565b5090565b60006002820490506001821680620005b857607f821691505b60208210811415620005cf57620005ce620005d5565b5b50919050565b7f4e487b7100000000000000000000000000000000000000000000000000000000600052602260045260246000fd5b61309d80620006146000396000f3fe6080604052600436106100a75760003560e01c806395426f391161006457806395426f39146101f657806397d2247714610233578063cd967f3a1461025c578063ec9c6a0e14610299578063f14faf6f146102d6578063f1841a7c146102f2576100a7565b80631a71eae1146100ac5780632016775e146100e957806335951cba146101145780633b574189146101515780634ca079f21461018e5780635598f8cc146101b9575b600080fd5b3480156100b857600080fd5b506100d360048036038101906100ce9190612068565b61031b565b6040516100e091906128f5565b60405180910390f35b3480156100f557600080fd5b506100fe61053f565b60405161010b91906128d3565b60405180910390f35b34801561012057600080fd5b5061013b6004803603810190610136919061203b565b6107b4565b6040516101489190612917565b60405180910390f35b34801561015d57600080fd5b50610178600480360381019061017391906120b1565b61086a565b60405161018591906128d3565b60405180910390f35b34801561019a57600080fd5b506101a3610c2e565b6040516101b091906128b1565b60405180910390f35b3480156101c557600080fd5b506101e060048036038101906101db9190612242565b611013565b6040516101ed9190612992565b60405180910390f35b34801561020257600080fd5b5061021d60048036038101906102189190612242565b611477565b60405161022a9190612917565b60405180910390f35b34801561023f57600080fd5b5061025a60048036038101906102559190612242565b6114e1565b005b34801561026857600080fd5b50610283600480360381019061027e9190612242565b611664565b60405161029091906129b4565b60405180910390f35b3480156102a557600080fd5b506102c060048036038101906102bb919061203b565b61190e565b6040516102cd9190612917565b60405180910390f35b6102f060048036038101906102eb9190612242565b6119c4565b005b3480156102fe57600080fd5b5061031960048036038101906103149190612129565b611ae7565b005b6060600160405180606001604052803373ffffffffffffffffffffffffffffffffffffffff168152602001848152602001600180549050815250908060018154018082558091505060019003906000526020600020906003020160009091909190915060008201518160000160006101000a81548173ffffffffffffffffffffffffffffffffffffffff021916908373ffffffffffffffffffffffffffffffffffffffff16021790555060208201518160010190805190602001906103e1929190611d01565b506040820151816002015550506001805480602002602001604051908101604052809291908181526020016000905b8282101561053457838290600052602060002090600302016040518060600160405290816000820160009054906101000a900473ffffffffffffffffffffffffffffffffffffffff1673ffffffffffffffffffffffffffffffffffffffff1673ffffffffffffffffffffffffffffffffffffffff16815260200160018201805461049990612d0b565b80601f01602080910402602001604051908101604052809291908181526020018280546104c590612d0b565b80156105125780601f106104e757610100808354040283529160200191610512565b820191906000526020600020905b8154815290600101906020018083116104f557829003601f168201915b5050505050815260200160028201548152505081526020019060010190610410565b505050509050919050565b60606000805480602002602001604051908101604052809291908181526020016000905b828210156107ab57838290600052602060002090600502016040518060a00160405290816000820160009054906101000a900473ffffffffffffffffffffffffffffffffffffffff1673ffffffffffffffffffffffffffffffffffffffff1673ffffffffffffffffffffffffffffffffffffffff1681526020016001820180546105ec90612d0b565b80601f016020809104026020016040519081016040528092919081815260200182805461061890612d0b565b80156106655780601f1061063a57610100808354040283529160200191610665565b820191906000526020600020905b81548152906001019060200180831161064857829003601f168201915b5050505050815260200160028201805461067e90612d0b565b80601f01602080910402602001604051908101604052809291908181526020018280546106aa90612d0b565b80156106f75780601f106106cc576101008083540402835291602001916106f7565b820191906000526020600020905b8154815290600101906020018083116106da57829003601f168201915b505050505081526020016003820154815260200160048201805461071a90612d0b565b80601f016020809104026020016040519081016040528092919081815260200182805461074690612d0b565b80156107935780601f1061076857610100808354040283529160200191610793565b820191906000526020600020905b81548152906001019060200180831161077657829003601f168201915b50505050508152505081526020019060010190610563565b50505050905090565b600080600090505b60018054905081101561085f578273ffffffffffffffffffffffffffffffffffffffff16600182815481106107f4576107f3612e73565b5b906000526020600020906003020160000160009054906101000a900473ffffffffffffffffffffffffffffffffffffffff1673ffffffffffffffffffffffffffffffffffffffff16141561084c576001915050610865565b808061085790612d6e565b9150506107bc565b50600090505b919050565b606060006040518060a001604052803373ffffffffffffffffffffffffffffffffffffffff16815260200185815260200184815260200160008054905081526020016040518060400160405280600581526020017f536d616c6c000000000000000000000000000000000000000000000000000000815250815250908060018154018082558091505060019003906000526020600020906005020160009091909190915060008201518160000160006101000a81548173ffffffffffffffffffffffffffffffffffffffff021916908373ffffffffffffffffffffffffffffffffffffffff1602179055506020820151816001019080519060200190610971929190611d01565b50604082015181600201908051906020019061098e929190611d01565b506060820151816003015560808201518160040190805190602001906109b5929190611d01565b5050506000805480602002602001604051908101604052809291908181526020016000905b82821015610c2257838290600052602060002090600502016040518060a00160405290816000820160009054906101000a900473ffffffffffffffffffffffffffffffffffffffff1673ffffffffffffffffffffffffffffffffffffffff1673ffffffffffffffffffffffffffffffffffffffff168152602001600182018054610a6390612d0b565b80601f0160208091040260200160405190810160405280929190818152602001828054610a8f90612d0b565b8015610adc5780601f10610ab157610100808354040283529160200191610adc565b820191906000526020600020905b815481529060010190602001808311610abf57829003601f168201915b50505050508152602001600282018054610af590612d0b565b80601f0160208091040260200160405190810160405280929190818152602001828054610b2190612d0b565b8015610b6e5780601f10610b4357610100808354040283529160200191610b6e565b820191906000526020600020905b815481529060010190602001808311610b5157829003601f168201915b5050505050815260200160038201548152602001600482018054610b9190612d0b565b80601f0160208091040260200160405190810160405280929190818152602001828054610bbd90612d0b565b8015610c0a5780601f10610bdf57610100808354040283529160200191610c0a565b820191906000526020600020905b815481529060010190602001808311610bed57829003601f168201915b505050505081525050815260200190600101906109da565b50505050905092915050565b60606002805480602002602001604051908101604052809291908181526020016000905b8282101561100a57838290600052602060002090600a0201604051806101400160405290816000820160009054906101000a900473ffffffffffffffffffffffffffffffffffffffff1673ffffffffffffffffffffffffffffffffffffffff1673ffffffffffffffffffffffffffffffffffffffff16815260200160018201548152602001600282018054610ce690612d0b565b80601f0160208091040260200160405190810160405280929190818152602001828054610d1290612d0b565b8015610d5f5780601f10610d3457610100808354040283529160200191610d5f565b820191906000526020600020905b815481529060010190602001808311610d4257829003601f168201915b50505050508152602001600382018054610d7890612d0b565b80601f0160208091040260200160405190810160405280929190818152602001828054610da490612d0b565b8015610df15780601f10610dc657610100808354040283529160200191610df1565b820191906000526020600020905b815481529060010190602001808311610dd457829003601f168201915b50505050508152602001600482018054610e0a90612d0b565b80601f0160208091040260200160405190810160405280929190818152602001828054610e3690612d0b565b8015610e835780601f10610e5857610100808354040283529160200191610e83565b820191906000526020600020905b815481529060010190602001808311610e6657829003601f168201915b50505050508152602001600582018054610e9c90612d0b565b80601f0160208091040260200160405190810160405280929190818152602001828054610ec890612d0b565b8015610f155780601f10610eea57610100808354040283529160200191610f15565b820191906000526020600020905b815481529060010190602001808311610ef857829003601f168201915b5050505050815260200160068201548152602001600782015481526020016008820160009054906101000a900460ff166002811115610f5757610f56612e15565b5b6002811115610f6957610f68612e15565b5b815260200160098201805480602002602001604051908101604052809291908181526020018280548015610ff257602002820191906000526020600020905b8160009054906101000a900473ffffffffffffffffffffffffffffffffffffffff1673ffffffffffffffffffffffffffffffffffffffff1681526020019060010190808311610fa8575b50505050508152505081526020019060010190610c52565b50505050905090565b61101b611d87565b8161102581611477565b611064576040517f08c379a000000000000000000000000000000000000000000000000000000000815260040161105b90612972565b60405180910390fd5b60005b60028054905081101561146f57836002828154811061108957611088612e73565b5b90600052602060002090600a020160010154141561145c57600281815481106110b5576110b4612e73565b5b90600052602060002090600a0201604051806101400160405290816000820160009054906101000a900473ffffffffffffffffffffffffffffffffffffffff1673ffffffffffffffffffffffffffffffffffffffff1673ffffffffffffffffffffffffffffffffffffffff1681526020016001820154815260200160028201805461113f90612d0b565b80601f016020809104026020016040519081016040528092919081815260200182805461116b90612d0b565b80156111b85780601f1061118d576101008083540402835291602001916111b8565b820191906000526020600020905b81548152906001019060200180831161119b57829003601f168201915b505050505081526020016003820180546111d190612d0b565b80601f01602080910402602001604051908101604052809291908181526020018280546111fd90612d0b565b801561124a5780601f1061121f5761010080835404028352916020019161124a565b820191906000526020600020905b81548152906001019060200180831161122d57829003601f168201915b5050505050815260200160048201805461126390612d0b565b80601f016020809104026020016040519081016040528092919081815260200182805461128f90612d0b565b80156112dc5780601f106112b1576101008083540402835291602001916112dc565b820191906000526020600020905b8154815290600101906020018083116112bf57829003601f168201915b505050505081526020016005820180546112f590612d0b565b80601f016020809104026020016040519081016040528092919081815260200182805461132190612d0b565b801561136e5780601f106113435761010080835404028352916020019161136e565b820191906000526020600020905b81548152906001019060200180831161135157829003601f168201915b5050505050815260200160068201548152602001600782015481526020016008820160009054906101000a900460ff1660028111156113b0576113af612e15565b5b60028111156113c2576113c1612e15565b5b81526020016009820180548060200260200160405190810160405280929190818152602001828054801561144b57602002820191906000526020600020905b8160009054906101000a900473ffffffffffffffffffffffffffffffffffffffff1673ffffffffffffffffffffffffffffffffffffffff1681526020019060010190808311611401575b505050505081525050925050611471565b808061146790612d6e565b915050611067565b505b50919050565b600080600090505b6002805490508110156114d65782600282815481106114a1576114a0612e73565b5b90600052602060002090600a02016001015414156114c35760019150506114dc565b80806114ce90612d6e565b91505061147f565b50600090505b919050565b806114eb81611477565b61152a576040517f08c379a000000000000000000000000000000000000000000000000000000000815260040161152190612972565b60405180910390fd5b6115333361190e565b611572576040517f08c379a000000000000000000000000000000000000000000000000000000000815260040161156990612952565b60405180910390fd5b600061157d83611013565b90506000816101200151905060008260e001518251600161159e9190612bbf565b6115a89190612bf0565b905060005b825181101561162a578281815181106115c9576115c8612e73565b5b602002602001015173ffffffffffffffffffffffffffffffffffffffff166108fc839081150290604051600060405180830381858888f19350505050158015611616573d6000803e3d6000fd5b50808061162290612d6e565b9150506115ad565b506002836101000190600281111561164557611644612e15565b5b9081600281111561165957611658612e15565b5b815250505050505050565b61166c611e02565b60005b60008054905081101561190757826000828154811061169157611690612e73565b5b90600052602060002090600502016003015414156118f457600081815481106116bd576116bc612e73565b5b90600052602060002090600502016040518060a00160405290816000820160009054906101000a900473ffffffffffffffffffffffffffffffffffffffff1673ffffffffffffffffffffffffffffffffffffffff1673ffffffffffffffffffffffffffffffffffffffff16815260200160018201805461173c90612d0b565b80601f016020809104026020016040519081016040528092919081815260200182805461176890612d0b565b80156117b55780601f1061178a576101008083540402835291602001916117b5565b820191906000526020600020905b81548152906001019060200180831161179857829003601f168201915b505050505081526020016002820180546117ce90612d0b565b80601f01602080910402602001604051908101604052809291908181526020018280546117fa90612d0b565b80156118475780601f1061181c57610100808354040283529160200191611847565b820191906000526020600020905b81548152906001019060200180831161182a57829003601f168201915b505050505081526020016003820154815260200160048201805461186a90612d0b565b80601f016020809104026020016040519081016040528092919081815260200182805461189690612d0b565b80156118e35780601f106118b8576101008083540402835291602001916118e3565b820191906000526020600020905b8154815290600101906020018083116118c657829003601f168201915b505050505081525050915050611909565b80806118ff90612d6e565b91505061166f565b505b919050565b600080600090505b6000805490508110156119b9578273ffffffffffffffffffffffffffffffffffffffff166000828154811061194e5761194d612e73565b5b906000526020600020906005020160000160009054906101000a900473ffffffffffffffffffffffffffffffffffffffff1673ffffffffffffffffffffffffffffffffffffffff1614156119a65760019150506119bf565b80806119b190612d6e565b915050611916565b50600090505b919050565b6119cd336107b4565b611a0c576040517f08c379a0000000000000000000000000000000000000000000000000000000008152600401611a0390612932565b60405180910390fd5b80611a1681611477565b611a55576040517f08c379a0000000000000000000000000000000000000000000000000000000008152600401611a4c90612972565b60405180910390fd5b60005b600280549050811015611ae2578260028281548110611a7a57611a79612e73565b5b90600052602060002090600a0201600101541415611acf573460028281548110611aa757611aa6612e73565b5b90600052602060002090600a02016007016000828254611ac79190612b69565b925050819055505b8080611ada90612d6e565b915050611a58565b505050565b611af03361190e565b611b2f576040517f08c379a0000000000000000000000000000000000000000000000000000000008152600401611b2690612952565b60405180910390fd5b60026040518061014001604052803373ffffffffffffffffffffffffffffffffffffffff16815260200160028054905081526020018881526020018781526020018681526020018581526020018481526020016000815260200160006002811115611b9d57611b9c612e15565b5b81526020018381525090806001815401808255809150506001900390600052602060002090600a020160009091909190915060008201518160000160006101000a81548173ffffffffffffffffffffffffffffffffffffffff021916908373ffffffffffffffffffffffffffffffffffffffff160217905550602082015181600101556040820151816002019080519060200190611c3c929190611d01565b506060820151816003019080519060200190611c59929190611d01565b506080820151816004019080519060200190611c76929190611d01565b5060a0820151816005019080519060200190611c93929190611d01565b5060c0820151816006015560e082015181600701556101008201518160080160006101000a81548160ff02191690836002811115611cd457611cd3612e15565b5b0217905550610120820151816009019080519060200190611cf6929190611e47565b505050505050505050565b828054611d0d90612d0b565b90600052602060002090601f016020900481019282611d2f5760008555611d76565b82601f10611d4857805160ff1916838001178555611d76565b82800160010185558215611d76579182015b82811115611d75578251825591602001919060010190611d5a565b5b509050611d839190611ed1565b5090565b604051806101400160405280600073ffffffffffffffffffffffffffffffffffffffff1681526020016000815260200160608152602001606081526020016060815260200160608152602001600081526020016000815260200160006002811115611df557611df4612e15565b5b8152602001606081525090565b6040518060a00160405280600073ffffffffffffffffffffffffffffffffffffffff168152602001606081526020016060815260200160008152602001606081525090565b828054828255906000526020600020908101928215611ec0579160200282015b82811115611ebf5782518260006101000a81548173ffffffffffffffffffffffffffffffffffffffff021916908373ffffffffffffffffffffffffffffffffffffffff16021790555091602001919060010190611e67565b5b509050611ecd9190611ed1565b5090565b5b80821115611eea576000816000905550600101611ed2565b5090565b6000611f01611efc846129fb565b6129d6565b90508083825260208201905082856020860282011115611f2457611f23612ed6565b5b60005b85811015611f545781611f3a8882611fb5565b845260208401935060208301925050600181019050611f27565b5050509392505050565b6000611f71611f6c84612a27565b6129d6565b905082815260208101848484011115611f8d57611f8c612edb565b5b611f98848285612cc9565b509392505050565b600081359050611faf81613022565b92915050565b600081359050611fc481613039565b92915050565b600082601f830112611fdf57611fde612ed1565b5b8135611fef848260208601611eee565b91505092915050565b600082601f83011261200d5761200c612ed1565b5b813561201d848260208601611f5e565b91505092915050565b60008135905061203581613050565b92915050565b60006020828403121561205157612050612ee5565b5b600061205f84828501611fa0565b91505092915050565b60006020828403121561207e5761207d612ee5565b5b600082013567ffffffffffffffff81111561209c5761209b612ee0565b5b6120a884828501611ff8565b91505092915050565b600080604083850312156120c8576120c7612ee5565b5b600083013567ffffffffffffffff8111156120e6576120e5612ee0565b5b6120f285828601611ff8565b925050602083013567ffffffffffffffff81111561211357612112612ee0565b5b61211f85828601611ff8565b9150509250929050565b60008060008060008060c0878903121561214657612145612ee5565b5b600087013567ffffffffffffffff81111561216457612163612ee0565b5b61217089828a01611ff8565b965050602087013567ffffffffffffffff81111561219157612190612ee0565b5b61219d89828a01611ff8565b955050604087013567ffffffffffffffff8111156121be576121bd612ee0565b5b6121ca89828a01611ff8565b945050606087013567ffffffffffffffff8111156121eb576121ea612ee0565b5b6121f789828a01611ff8565b935050608061220889828a01612026565b92505060a087013567ffffffffffffffff81111561222957612228612ee0565b5b61223589828a01611fca565b9150509295509295509295565b60006020828403121561225857612257612ee5565b5b600061226684828501612026565b91505092915050565b600061227b83836122c3565b60208301905092915050565b6000612293838361255e565b905092915050565b60006122a7838361274a565b905092915050565b60006122bb8383612852565b905092915050565b6122cc81612c5c565b82525050565b6122db81612c4a565b82525050565b60006122ec82612a98565b6122f68185612b03565b935061230183612a58565b8060005b83811015612332578151612319888261226f565b975061232483612acf565b925050600181019050612305565b5085935050505092915050565b600061234a82612aa3565b6123548185612b14565b93508360208202850161236685612a68565b8060005b858110156123a257848403895281516123838582612287565b945061238e83612adc565b925060208a0199505060018101905061236a565b50829750879550505050505092915050565b60006123bf82612aae565b6123c98185612b25565b9350836020820285016123db85612a78565b8060005b8581101561241757848403895281516123f8858261229b565b945061240383612ae9565b925060208a019950506001810190506123df565b50829750879550505050505092915050565b600061243482612ab9565b61243e8185612b36565b93508360208202850161245085612a88565b8060005b8581101561248c578484038952815161246d85826122af565b945061247883612af6565b925060208a01995050600181019050612454565b50829750879550505050505092915050565b6124a781612c6e565b82525050565b6124b681612cb7565b82525050565b60006124c782612ac4565b6124d18185612b47565b93506124e1818560208601612cd8565b6124ea81612eea565b840191505092915050565b6000612502604483612b58565b915061250d82612efb565b606082019050919050565b6000612525604b83612b58565b915061253082612f70565b606082019050919050565b6000612548601f83612b58565b915061255382612fe5565b602082019050919050565b60006101408301600083015161257760008601826122d2565b50602083015161258a60208601826128a2565b50604083015184820360408601526125a282826124bc565b915050606083015184820360608601526125bc82826124bc565b915050608083015184820360808601526125d682826124bc565b91505060a083015184820360a08601526125f082826124bc565b91505060c083015161260560c08601826128a2565b5060e083015161261860e08601826128a2565b5061010083015161262d6101008601826124ad565b5061012083015184820361012086015261264782826122e1565b9150508091505092915050565b60006101408301600083015161266d60008601826122d2565b50602083015161268060208601826128a2565b506040830151848203604086015261269882826124bc565b915050606083015184820360608601526126b282826124bc565b915050608083015184820360808601526126cc82826124bc565b91505060a083015184820360a08601526126e682826124bc565b91505060c08301516126fb60c08601826128a2565b5060e083015161270e60e08601826128a2565b506101008301516127236101008601826124ad565b5061012083015184820361012086015261273d82826122e1565b9150508091505092915050565b600060a08301600083015161276260008601826122d2565b506020830151848203602086015261277a82826124bc565b9150506040830151848203604086015261279482826124bc565b91505060608301516127a960608601826128a2565b50608083015184820360808601526127c182826124bc565b9150508091505092915050565b600060a0830160008301516127e660008601826122d2565b50602083015184820360208601526127fe82826124bc565b9150506040830151848203604086015261281882826124bc565b915050606083015161282d60608601826128a2565b506080830151848203608086015261284582826124bc565b9150508091505092915050565b600060608301600083015161286a60008601826122d2565b506020830151848203602086015261288282826124bc565b915050604083015161289760408601826128a2565b508091505092915050565b6128ab81612cad565b82525050565b600060208201905081810360008301526128cb818461233f565b905092915050565b600060208201905081810360008301526128ed81846123b4565b905092915050565b6000602082019050818103600083015261290f8184612429565b905092915050565b600060208201905061292c600083018461249e565b92915050565b6000602082019050818103600083015261294b816124f5565b9050919050565b6000602082019050818103600083015261296b81612518565b9050919050565b6000602082019050818103600083015261298b8161253b565b9050919050565b600060208201905081810360008301526129ac8184612654565b905092915050565b600060208201905081810360008301526129ce81846127ce565b905092915050565b60006129e06129f1565b90506129ec8282612d3d565b919050565b6000604051905090565b600067ffffffffffffffff821115612a1657612a15612ea2565b5b602082029050602081019050919050565b600067ffffffffffffffff821115612a4257612a41612ea2565b5b612a4b82612eea565b9050602081019050919050565b6000819050602082019050919050565b6000819050602082019050919050565b6000819050602082019050919050565b6000819050602082019050919050565b600081519050919050565b600081519050919050565b600081519050919050565b600081519050919050565b600081519050919050565b6000602082019050919050565b6000602082019050919050565b6000602082019050919050565b6000602082019050919050565b600082825260208201905092915050565b600082825260208201905092915050565b600082825260208201905092915050565b600082825260208201905092915050565b600082825260208201905092915050565b600082825260208201905092915050565b6000612b7482612cad565b9150612b7f83612cad565b9250827fffffffffffffffffffffffffffffffffffffffffffffffffffffffffffffffff03821115612bb457612bb3612db7565b5b828201905092915050565b6000612bca82612cad565b9150612bd583612cad565b925082612be557612be4612de6565b5b828204905092915050565b6000612bfb82612cad565b9150612c0683612cad565b9250817fffffffffffffffffffffffffffffffffffffffffffffffffffffffffffffffff0483118215151615612c3f57612c3e612db7565b5b828202905092915050565b6000612c5582612c8d565b9050919050565b6000612c6782612c8d565b9050919050565b60008115159050919050565b6000819050612c888261300e565b919050565b600073ffffffffffffffffffffffffffffffffffffffff82169050919050565b6000819050919050565b6000612cc282612c7a565b9050919050565b82818337600083830152505050565b60005b83811015612cf6578082015181840152602081019050612cdb565b83811115612d05576000848401525b50505050565b60006002820490506001821680612d2357607f821691505b60208210811415612d3757612d36612e44565b5b50919050565b612d4682612eea565b810181811067ffffffffffffffff82111715612d6557612d64612ea2565b5b80604052505050565b6000612d7982612cad565b91507fffffffffffffffffffffffffffffffffffffffffffffffffffffffffffffffff821415612dac57612dab612db7565b5b600182019050919050565b7f4e487b7100000000000000000000000000000000000000000000000000000000600052601160045260246000fd5b7f4e487b7100000000000000000000000000000000000000000000000000000000600052601260045260246000fd5b7f4e487b7100000000000000000000000000000000000000000000000000000000600052602160045260246000fd5b7f4e487b7100000000000000000000000000000000000000000000000000000000600052602260045260246000fd5b7f4e487b7100000000000000000000000000000000000000000000000000000000600052603260045260246000fd5b7f4e487b7100000000000000000000000000000000000000000000000000000000600052604160045260246000fd5b600080fd5b600080fd5b600080fd5b600080fd5b600080fd5b6000601f19601f8301169050919050565b7f596f75206e65656420746f207265676973746572206173206120646f6e6f722060008201527f696e206f7264657220746f2070726f636565642077697468207468697320616360208201527f74696f6e00000000000000000000000000000000000000000000000000000000604082015250565b7f596f75206e65656420746f20626520612061757468656e74696361746564206360008201527f68617269747920696e206f7264657220746f2070726f6365656420776974682060208201527f7468697320616374696f6e000000000000000000000000000000000000000000604082015250565b7f54686973206973206e6f7420612076616c69642063616d706169676e20494400600082015250565b6003811061301f5761301e612e15565b5b50565b61302b81612c4a565b811461303657600080fd5b50565b61304281612c5c565b811461304d57600080fd5b50565b61305981612cad565b811461306457600080fd5b5056fea2646970667358221220e63f6d93731cbfcb935a3ef7875cef144ecbcf064e0ab4d4a1850fe8a94483dd64736f6c6343000806003354686520576f726c6420576964652046756e6420666f72204e61747572652c20616c736f206b6e6f776e2061732074686520576f726c642057696c646c6966652046756e642c206973206f6e65206f6620746865206c61726765737420636f6e736572766174696f6e206f7267616e697a6174696f6e7320696e2074686520776f726c64554e49434546206973206120556e69746564204e6174696f6e73206167656e63792064656469636174656420746f2070726f766964696e672068756d616e6974617269616e20616e6420646576656c6f706d656e74616c20617373697374616e636520746f206368696c6472656e20616e64206d6f746865727320696e20646576656c6f70696e6720636f756e74726965732e54686520416d65726963616e205265642043726f737320697320612068756d616e6974617269616e206f7267616e697a6174696f6e20746861742070726f766964657320656d657267656e637920617373697374616e63652c2064697361737465722072656c6965662c20616e6420656475636174696f6e20696e2074686520556e69746564205374617465732e",
  "linkReferences": {},
  "deployedLinkReferences": {}
}